Component: ARM Compiler 5.06 update 6 (build 750) Tool: armlink [4d35ed]

==============================================================================

Section Cross References

    startup_stm32f10x_hd.o(RESET) refers to startup_stm32f10x_hd.o(STACK) for __initial_sp
    startup_stm32f10x_hd.o(RESET) refers to startup_stm32f10x_hd.o(.text) for Reset_Handler
    startup_stm32f10x_hd.o(RESET) refers to stm32f10x_it.o(i.NMI_Handler) for NMI_Handler
    startup_stm32f10x_hd.o(RESET) refers to stm32f10x_it.o(i.HardFault_Handler) for HardFault_Handler
    startup_stm32f10x_hd.o(RESET) refers to stm32f10x_it.o(i.MemManage_Handler) for MemManage_Handler
    startup_stm32f10x_hd.o(RESET) refers to stm32f10x_it.o(i.BusFault_Handler) for BusFault_Handler
    startup_stm32f10x_hd.o(RESET) refers to stm32f10x_it.o(i.UsageFault_Handler) for UsageFault_Handler
    startup_stm32f10x_hd.o(RESET) refers to stm32f10x_it.o(i.SVC_Handler) for SVC_Handler
    startup_stm32f10x_hd.o(RESET) refers to stm32f10x_it.o(i.DebugMon_Handler) for DebugMon_Handler
    startup_stm32f10x_hd.o(RESET) refers to stm32f10x_it.o(i.PendSV_Handler) for PendSV_Handler
    startup_stm32f10x_hd.o(RESET) refers to systick.o(i.SysTick_Handler) for SysTick_Handler
    startup_stm32f10x_hd.o(RESET) refers to rtc.o(i.RTC_IRQHandler) for RTC_IRQHandler
    startup_stm32f10x_hd.o(RESET) refers to exti.o(i.EXTI0_IRQHandler) for EXTI0_IRQHandler
    startup_stm32f10x_hd.o(RESET) refers to exti.o(i.EXTI3_IRQHandler) for EXTI3_IRQHandler
    startup_stm32f10x_hd.o(RESET) refers to exti.o(i.EXTI4_IRQHandler) for EXTI4_IRQHandler
    startup_stm32f10x_hd.o(RESET) refers to usart.o(i.USART1_IRQHandler) for USART1_IRQHandler
    startup_stm32f10x_hd.o(RESET) refers to usart.o(i.USART2_IRQHandler) for USART2_IRQHandler
    startup_stm32f10x_hd.o(RESET) refers to usart.o(i.USART3_IRQHandler) for USART3_IRQHandler
==============================================================================

Removing Unused input sections from the image.

    Removing startup_stm32f10x_hd.o(HEAP), (512 bytes).
    Removing core_cm3.o(.emb_text), (32 bytes).
    Removing system_stm32f10x.o(i.SystemCoreClockUpdate), (164 bytes).
    Removing system_stm32f10x.o(.data), (20 bytes).
    Removing misc.o(i.NVIC_SetVectorTable), (20 bytes).
    Removing misc.o(i.NVIC_SystemLPConfig), (32 bytes).
    Removing misc.o(i.SysTick_CLKSourceConfig), (40 bytes).
    Removing stm32f10x_adc.o(i.ADC_AnalogWatchdogCmd), (20 bytes).
    Removing stm32f10x_adc.o(i.ADC_AnalogWatchdogSingleChannelConfig), (16 bytes).
    Removing stm32f10x_adc.o(i.ADC_AnalogWatchdogThresholdsConfig), (6 bytes).
    Removing stm32f10x_adc.o(i.ADC_AutoInjectedConvCmd), (22 bytes).
    Removing stm32f10x_adc.o(i.ADC_ClearFlag), (6 bytes).
    Removing stm32f10x_adc.o(i.ADC_ClearITPendingBit), (10 bytes).
    Removing stm32f10x_adc.o(i.ADC_Cmd), (22 bytes).
    Removing stm32f10x_adc.o(i.ADC_DMACmd), (22 bytes).
    Removing stm32f10x_adc.o(i.ADC_DeInit), (92 bytes).
    Removing stm32f10x_adc.o(i.ADC_DiscModeChannelCountConfig), (24 bytes).
    Removing stm32f10x_adc.o(i.ADC_DiscModeCmd), (22 bytes).
==============================================================================

Image Symbol Table

    Local Symbols

    Symbol Name                              Value     Ov Type        Size  Object(Section)

    ../clib/microlib/division.c              0x00000000   Number         0  uidiv.o ABSOLUTE
    ../clib/microlib/division.c              0x00000000   Number         0  uldiv.o ABSOLUTE
    ../clib/microlib/init/entry.s            0x00000000   Number         0  entry2.o ABSOLUTE
    ../clib/microlib/init/entry.s            0x00000000   Number         0  entry5.o ABSOLUTE
    ../clib/microlib/init/entry.s            0x00000000   Number         0  entry7b.o ABSOLUTE
    ../clib/microlib/init/entry.s            0x00000000   Number         0  entry8b.o ABSOLUTE
    ../clib/microlib/init/entry.s            0x00000000   Number         0  entry7a.o ABSOLUTE
    ../clib/microlib/init/entry.s            0x00000000   Number         0  entry.o ABSOLUTE
    ../clib/microlib/init/entry.s            0x00000000   Number         0  entry8a.o ABSOLUTE
    ../clib/microlib/init/entry.s            0x00000000   Number         0  entry10a.o ABSOLUTE
    ../clib/microlib/init/entry.s            0x00000000   Number         0  entry9a.o ABSOLUTE
    ../clib/microlib/init/entry.s            0x00000000   Number         0  entry11a.o ABSOLUTE
    ../clib/microlib/init/entry.s            0x00000000   Number         0  entry9b.o ABSOLUTE
    ../clib/microlib/init/entry.s            0x00000000   Number         0  entry10b.o ABSOLUTE
    ../clib/microlib/init/entry.s            0x00000000   Number         0  entry11b.o ABSOLUTE
    ../clib/microlib/longlong.c              0x00000000   Number         0  llsshr.o ABSOLUTE
    ../clib/microlib/longlong.c              0x00000000   Number         0  llushr.o ABSOLUTE
    ../clib/microlib/longlong.c              0x00000000   Number         0  llshl.o ABSOLUTE
    ../clib/microlib/printf/printf.c         0x00000000   Number         0  printf3.o ABSOLUTE
    ../clib/microlib/printf/printf.c         0x00000000   Number         0  printf7.o ABSOLUTE
    ../clib/microlib/printf/printf.c         0x00000000   Number         0  printf1.o ABSOLUTE
    ../clib/microlib/printf/printf.c         0x00000000   Number         0  printf8.o ABSOLUTE
    ../clib/microlib/printf/printf.c         0x00000000   Number         0  printf6.o ABSOLUTE
    ../clib/microlib/printf/printf.c         0x00000000   Number         0  printfa.o ABSOLUTE
    ../clib/microlib/printf/printf.c         0x00000000   Number         0  printf5.o ABSOLUTE
    ../clib/microlib/printf/printf.c         0x00000000   Number         0  printf0.o ABSOLUTE
    ../clib/microlib/printf/printf.c         0x00000000   Number         0  printf4.o ABSOLUTE
    ../clib/microlib/printf/printf.c         0x00000000   Number         0  printf2.o ABSOLUTE
    ../clib/microlib/printf/printf.c         0x00000000   Number         0  printfb.o ABSOLUTE
    ../clib/microlib/printf/stubs.s          0x00000000   Number         0  stubs.o ABSOLUTE
    ../clib/microlib/stdio/streams.c         0x00000000   Number         0  stdout.o ABSOLUTE
    ../clib/microlib/string/memset.c         0x00000000   Number         0  memseta.o ABSOLUTE
    ../clib/microlib/string/strcmp.c         0x00000000   Number         0  strcmp.o ABSOLUTE
    ../clib/microlib/stubs.s                 0x00000000   Number         0  iusefp.o ABSOLUTE
    ../fplib/microlib/fpadd.c                0x00000000   Number         0  dadd.o ABSOLUTE
    ../fplib/microlib/fpdiv.c                0x00000000   Number         0  ddiv.o ABSOLUTE
    ../fplib/microlib/fpepilogue.c           0x00000000   Number         0  depilogue.o ABSOLUTE
    ../fplib/microlib/fpfix.c                0x00000000   Number         0  dfixul.o ABSOLUTE
    ../fplib/microlib/fpfix.c                0x00000000   Number         0  dfixui.o ABSOLUTE
    ../fplib/microlib/fpflt.c                0x00000000   Number         0  dfltui.o ABSOLUTE
    ../fplib/microlib/fpmul.c                0x00000000   Number         0  dmul.o ABSOLUTE
    ..\Hardware\24CXX\24cxx.c                0x00000000   Number         0  24cxx.o ABSOLUTE
    ..\Hardware\Button\Btn_Menu.c            0x00000000   Number         0  btn_menu.o ABSOLUTE
    ..\Hardware\Button\multi_button.c        0x00000000   Number         0  multi_button.o ABSOLUTE
    ..\Hardware\DHT11\dht11.c                0x00000000   Number         0  dht11.o ABSOLUTE
    ..\Hardware\LCD\lcd.c                    0x00000000   Number         0  lcd.o ABSOLUTE
    ..\Libraries\CMSIS\core_cm3.c            0x00000000   Number         0  core_cm3.o ABSOLUTE
    ..\Libraries\CMSIS\startup\startup_stm32f10x_hd.s 0x00000000   Number         0  startup_stm32f10x_hd.o ABSOLUTE
    ..\Libraries\CMSIS\system_stm32f10x.c    0x00000000   Number         0  system_stm32f10x.o ABSOLUTE
    ..\Libraries\FWLIB\src\misc.c            0x00000000   Number         0  misc.o ABSOLUTE
    ..\Libraries\FWLIB\src\stm32f10x_adc.c   0x00000000   Number         0  stm32f10x_adc.o ABSOLUTE
    ..\Libraries\FWLIB\src\stm32f10x_bkp.c   0x00000000   Number         0  stm32f10x_bkp.o ABSOLUTE
    ..\Libraries\FWLIB\src\stm32f10x_can.c   0x00000000   Number         0  stm32f10x_can.o ABSOLUTE
    ..\Libraries\FWLIB\src\stm32f10x_cec.c   0x00000000   Number         0  stm32f10x_cec.o ABSOLUTE
    ..\Libraries\FWLIB\src\stm32f10x_crc.c   0x00000000   Number         0  stm32f10x_crc.o ABSOLUTE
    ..\Libraries\FWLIB\src\stm32f10x_dac.c   0x00000000   Number         0  stm32f10x_dac.o ABSOLUTE
    ..\Libraries\FWLIB\src\stm32f10x_dbgmcu.c 0x00000000   Number         0  stm32f10x_dbgmcu.o ABSOLUTE
    ..\Libraries\FWLIB\src\stm32f10x_dma.c   0x00000000   Number         0  stm32f10x_dma.o ABSOLUTE
    ..\Libraries\FWLIB\src\stm32f10x_exti.c  0x00000000   Number         0  stm32f10x_exti.o ABSOLUTE
    ..\Libraries\FWLIB\src\stm32f10x_flash.c 0x00000000   Number         0  stm32f10x_flash.o ABSOLUTE
    ..\Libraries\FWLIB\src\stm32f10x_fsmc.c  0x00000000   Number         0  stm32f10x_fsmc.o ABSOLUTE
    ..\Libraries\FWLIB\src\stm32f10x_gpio.c  0x00000000   Number         0  stm32f10x_gpio.o ABSOLUTE
    ..\Libraries\FWLIB\src\stm32f10x_i2c.c   0x00000000   Number         0  stm32f10x_i2c.o ABSOLUTE
    ..\Libraries\FWLIB\src\stm32f10x_iwdg.c  0x00000000   Number         0  stm32f10x_iwdg.o ABSOLUTE
    ..\Libraries\FWLIB\src\stm32f10x_pwr.c   0x00000000   Number         0  stm32f10x_pwr.o ABSOLUTE
    ..\Libraries\FWLIB\src\stm32f10x_rcc.c   0x00000000   Number         0  stm32f10x_rcc.o ABSOLUTE
    ..\Libraries\FWLIB\src\stm32f10x_rtc.c   0x00000000   Number         0  stm32f10x_rtc.o ABSOLUTE
    ..\Libraries\FWLIB\src\stm32f10x_sdio.c  0x00000000   Number         0  stm32f10x_sdio.o ABSOLUTE
    ..\Libraries\FWLIB\src\stm32f10x_spi.c   0x00000000   Number         0  stm32f10x_spi.o ABSOLUTE
    ..\Libraries\FWLIB\src\stm32f10x_tim.c   0x00000000   Number         0  stm32f10x_tim.o ABSOLUTE
    ..\Libraries\FWLIB\src\stm32f10x_usart.c 0x00000000   Number         0  stm32f10x_usart.o ABSOLUTE
    ..\Libraries\FWLIB\src\stm32f10x_wwdg.c  0x00000000   Number         0  stm32f10x_wwdg.o ABSOLUTE
    ..\Source\Dev\Exti.c                     0x00000000   Number         0  exti.o ABSOLUTE
    ..\Source\Dev\Gpio.c                     0x00000000   Number         0  gpio.o ABSOLUTE
    ..\Source\Dev\Queue.c                    0x00000000   Number         0  queue.o ABSOLUTE
    ..\Source\Dev\SysTick.c                  0x00000000   Number         0  systick.o ABSOLUTE
    ..\Source\Dev\USart.c                    0x00000000   Number         0  usart.o ABSOLUTE
    ..\Source\Dev\myiic.c                    0x00000000   Number         0  myiic.o ABSOLUTE
    ..\Source\Dev\rtc.c                      0x00000000   Number         0  rtc.o ABSOLUTE
    ..\Source\Dev\sys.c                      0x00000000   Number         0  sys.o ABSOLUTE
    ..\Source\Main\main.c                    0x00000000   Number         0  main.o ABSOLUTE
    ..\Source\Main\stm32f10x_it.c            0x00000000   Number         0  stm32f10x_it.o ABSOLUTE
    ..\Source\Main\system.c                  0x00000000   Number         0  system.o ABSOLUTE
    ..\\Libraries\\CMSIS\\core_cm3.c         0x00000000   Number         0  core_cm3.o ABSOLUTE
    ..\\Source\\Dev\\sys.c                   0x00000000   Number         0  sys.o ABSOLUTE
    cdrcmple.s                               0x00000000   Number         0  cdrcmple.o ABSOLUTE
    dc.s                                     0x00000000   Number         0  dc.o ABSOLUTE
    handlers.s                               0x00000000   Number         0  handlers.o ABSOLUTE
    init.s                                   0x00000000   Number         0  init.o ABSOLUTE
    RESET                                    0x08000000   Section      304  startup_stm32f10x_hd.o(RESET)
    .ARM.Collect$$$$00000000                 0x08000130   Section        0  entry.o(.ARM.Collect$$$$00000000)
    .ARM.Collect$$$$00000001                 0x08000130   Section        4  entry2.o(.ARM.Collect$$$$00000001)
    .ARM.Collect$$$$00000004                 0x08000134   Section        4  entry5.o(.ARM.Collect$$$$00000004)
    .ARM.Collect$$$$00000008                 0x08000138   Section        0  entry7b.o(.ARM.Collect$$$$00000008)
    .ARM.Collect$$$$0000000A                 0x08000138   Section        0  entry8b.o(.ARM.Collect$$$$0000000A)
    .ARM.Collect$$$$0000000B                 0x08000138   Section        8  entry9a.o(.ARM.Collect$$$$0000000B)
    .ARM.Collect$$$$0000000D                 0x08000140   Section        0  entry10a.o(.ARM.Collect$$$$0000000D)
    .ARM.Collect$$$$0000000F                 0x08000140   Section        0  entry11a.o(.ARM.Collect$$$$0000000F)
    .ARM.Collect$$$$00002712                 0x08000140   Section        4  entry2.o(.ARM.Collect$$$$00002712)
    __lit__00000000                          0x08000140   Data           4  entry2.o(.ARM.Collect$$$$00002712)
    .text                                    0x08000144   Section       36  startup_stm32f10x_hd.o(.text)
    .text                                    0x08000168   Section        0  memseta.o(.text)
    .text                                    0x0800018c   Section        0  strcmp.o(.text)
    .text                                    0x080001a8   Section        0  uldiv.o(.text)
    .text                                    0x0800020a   Section        0  llushr.o(.text)
    .text                                    0x0800022c   Section       36  init.o(.text)
    .text                                    0x08000250   Section        0  llshl.o(.text)
    i.AT24CXX_Check                          0x0800026e   Section        0  24cxx.o(i.AT24CXX_Check)
    i.AT24CXX_Init                           0x0800029c   Section        0  24cxx.o(i.AT24CXX_Init)
    i.AT24CXX_Read                           0x080002a4   Section        0  24cxx.o(i.AT24CXX_Read)
    i.AT24CXX_ReadOneByte                    0x080002c6   Section        0  24cxx.o(i.AT24CXX_ReadOneByte)
    i.AT24CXX_Write                          0x0800031e   Section        0  24cxx.o(i.AT24CXX_Write)
    i.AT24CXX_WriteOneByte                   0x08000342   Section        0  24cxx.o(i.AT24CXX_WriteOneByte)
    i.ATask                                  0x08000394   Section        0  system.o(i.ATask)
    i.BKP_DeInit                             0x080003fc   Section        0  stm32f10x_bkp.o(i.BKP_DeInit)
    i.BKP_ReadBackupRegister                 0x0800040c   Section        0  stm32f10x_bkp.o(i.BKP_ReadBackupRegister)
    i.BKP_WriteBackupRegister                0x08000428   Section        0  stm32f10x_bkp.o(i.BKP_WriteBackupRegister)
    i.BTask                                  0x08000444   Section        0  system.o(i.BTask)
    i.BeepGpioInit                           0x08000618   Section        0  gpio.o(i.BeepGpioInit)
    i.BeepOff                                0x08000644   Section        0  gpio.o(i.BeepOff)
    i.BeepOn                                 0x08000658   Section        0  gpio.o(i.BeepOn)
    i.BtnTask                                0x0800066c   Section        0  system.o(i.BtnTask)
    i.BusFault_Handler                       0x08000674   Section        0  stm32f10x_it.o(i.BusFault_Handler)
    i.CTask                                  0x08000678   Section        0  system.o(i.CTask)
    i.CpuInit                                0x080007b4   Section        0  system.o(i.CpuInit)
    i.DHT11_Check                            0x080007c0   Section        0  dht11.o(i.DHT11_Check)
    i.DHT11_Init                             0x08000824   Section        0  dht11.o(i.DHT11_Init)
    i.DHT11_Read_Bit                         0x08000864   Section        0  dht11.o(i.DHT11_Read_Bit)
    i.DHT11_Read_Byte                        0x080008b0   Section        0  dht11.o(i.DHT11_Read_Byte)
    i.DHT11_Read_Data                        0x080008ce   Section        0  dht11.o(i.DHT11_Read_Data)
    i.DHT11_Rst                              0x08000928   Section        0  dht11.o(i.DHT11_Rst)
    i.DebugMon_Handler                       0x08000968   Section        0  stm32f10x_it.o(i.DebugMon_Handler)
    i.EXTI0_IRQHandler                       0x0800096c   Section        0  exti.o(i.EXTI0_IRQHandler)
    i.EXTI3_IRQHandler                       0x08000994   Section        0  exti.o(i.EXTI3_IRQHandler)
    i.EXTI4_IRQHandler                       0x080009bc   Section        0  exti.o(i.EXTI4_IRQHandler)
    i.EXTI_ClearITPendingBit                 0x080009e4   Section        0  stm32f10x_exti.o(i.EXTI_ClearITPendingBit)
    i.FIRST_SHOW                             0x080009f0   Section        0  btn_menu.o(i.FIRST_SHOW)
    i.FSMC_NORSRAMCmd                        0x08000b38   Section        0  stm32f10x_fsmc.o(i.FSMC_NORSRAMCmd)
    i.FSMC_NORSRAMInit                       0x08000b6c   Section        0  stm32f10x_fsmc.o(i.FSMC_NORSRAMInit)
    i.GPIO_Init                              0x08000c52   Section        0  stm32f10x_gpio.o(i.GPIO_Init)
    i.GPIO_ReadInputDataBit                  0x08000d68   Section        0  stm32f10x_gpio.o(i.GPIO_ReadInputDataBit)
    i.GPIO_ResetBits                         0x08000d7a   Section        0  stm32f10x_gpio.o(i.GPIO_ResetBits)
    i.GPIO_SetBits                           0x08000d7e   Section        0  stm32f10x_gpio.o(i.GPIO_SetBits)
    i.GpioToggle                             0x08000d82   Section        0  gpio.o(i.GpioToggle)
    i.HardFault_Handler                      0x08000d8a   Section        0  stm32f10x_it.o(i.HardFault_Handler)
    i.IIC_Ack                                0x08000d90   Section        0  myiic.o(i.IIC_Ack)
    i.IIC_Init                               0x08000de0   Section        0  myiic.o(i.IIC_Init)
    i.IIC_NAck                               0x08000e14   Section        0  myiic.o(i.IIC_NAck)
    i.IIC_Read_Byte                          0x08000e64   Section        0  myiic.o(i.IIC_Read_Byte)
    i.IIC_Send_Byte                          0x08000ed4   Section        0  myiic.o(i.IIC_Send_Byte)
    i.IIC_Start                              0x08000f3c   Section        0  myiic.o(i.IIC_Start)
    i.IIC_Stop                               0x08000f88   Section        0  myiic.o(i.IIC_Stop)
    i.IIC_Wait_Ack                           0x08000fd4   Section        0  myiic.o(i.IIC_Wait_Ack)
    i.Is_Leap_Year                           0x08001038   Section        0  rtc.o(i.Is_Leap_Year)
    i.KEY_Init                               0x08001074   Section        0  gpio.o(i.KEY_Init)
    i.LCD_Clear                              0x080010b0   Section        0  lcd.o(i.LCD_Clear)
    i.LCD_Display_Dir                        0x0800111c   Section        0  lcd.o(i.LCD_Display_Dir)
    i.LCD_DrawLine                           0x080012dc   Section        0  lcd.o(i.LCD_DrawLine)
    i.LCD_DrawPoint                          0x0800138c   Section        0  lcd.o(i.LCD_DrawPoint)
    i.LCD_Fast_DrawPoint                     0x080013b0   Section        0  lcd.o(i.LCD_Fast_DrawPoint)
    i.LCD_Fill                               0x0800152c   Section        0  lcd.o(i.LCD_Fill)
    i.LCD_Init                               0x080015e8   Section        0  lcd.o(i.LCD_Init)
    i.LCD_Pow                                0x08001b18   Section        0  lcd.o(i.LCD_Pow)
    i.LCD_RD_DATA                            0x08001b30   Section        0  lcd.o(i.LCD_RD_DATA)
    i.LCD_ReadReg                            0x08001b44   Section        0  lcd.o(i.LCD_ReadReg)
    i.LCD_Scan_Dir                           0x08001b54   Section        0  lcd.o(i.LCD_Scan_Dir)
    i.LCD_SetCursor                          0x08001e40   Section        0  lcd.o(i.LCD_SetCursor)
    i.LCD_ShowChar                           0x08001fe8   Section        0  lcd.o(i.LCD_ShowChar)
    i.LCD_ShowNum                            0x08002110   Section        0  lcd.o(i.LCD_ShowNum)
    i.LCD_ShowString                         0x080021a4   Section        0  lcd.o(i.LCD_ShowString)
    i.LCD_WR_DATA                            0x0800220c   Section        0  lcd.o(i.LCD_WR_DATA)
    i.LCD_WR_REG                             0x08002218   Section        0  lcd.o(i.LCD_WR_REG)
    i.LCD_WriteRAM_Prepare                   0x08002224   Section        0  lcd.o(i.LCD_WriteRAM_Prepare)
    i.LCD_WriteReg                           0x08002238   Section        0  lcd.o(i.LCD_WriteReg)
    i.LedControl                             0x08002248   Section        0  gpio.o(i.LedControl)
    i.LedGpioInit                            0x080022b4   Section        0  gpio.o(i.LedGpioInit)
    i.MemManage_Handler                      0x080022ec   Section        0  stm32f10x_it.o(i.MemManage_Handler)
    i.NMI_Handler                            0x080022f0   Section        0  stm32f10x_it.o(i.NMI_Handler)
    i.NVIC_Init                              0x080022f4   Section        0  misc.o(i.NVIC_Init)
    i.NVIC_PriorityGroupConfig               0x08002364   Section        0  misc.o(i.NVIC_PriorityGroupConfig)
    i.PWR_BackupAccessCmd                    0x08002378   Section        0  stm32f10x_pwr.o(i.PWR_BackupAccessCmd)
    i.PendSV_Handler                         0x08002384   Section        0  stm32f10x_it.o(i.PendSV_Handler)
    i.QueueInPut                             0x08002386   Section        0  queue.o(i.QueueInPut)
    i.QueueInit                              0x080023cc   Section        0  queue.o(i.QueueInit)
    i.QueueOutPut                            0x080023da   Section        0  queue.o(i.QueueOutPut)
    i.RCC_AHBPeriphClockCmd                  0x0800240c   Section        0  stm32f10x_rcc.o(i.RCC_AHBPeriphClockCmd)
    i.RCC_APB1PeriphClockCmd                 0x0800242c   Section        0  stm32f10x_rcc.o(i.RCC_APB1PeriphClockCmd)
    i.RCC_APB2PeriphClockCmd                 0x0800244c   Section        0  stm32f10x_rcc.o(i.RCC_APB2PeriphClockCmd)
    i.RCC_BackupResetCmd                     0x0800246c   Section        0  stm32f10x_rcc.o(i.RCC_BackupResetCmd)
    i.RCC_GetClocksFreq                      0x08002478   Section        0  stm32f10x_rcc.o(i.RCC_GetClocksFreq)
    i.RCC_GetFlagStatus                      0x0800254c   Section        0  stm32f10x_rcc.o(i.RCC_GetFlagStatus)
    i.RCC_LSEConfig                          0x08002588   Section        0  stm32f10x_rcc.o(i.RCC_LSEConfig)
    i.RCC_RTCCLKCmd                          0x080025bc   Section        0  stm32f10x_rcc.o(i.RCC_RTCCLKCmd)
    i.RCC_RTCCLKConfig                       0x080025c8   Section        0  stm32f10x_rcc.o(i.RCC_RTCCLKConfig)
    i.RTC_ClearITPendingBit                  0x080025d8   Section        0  stm32f10x_rtc.o(i.RTC_ClearITPendingBit)
    i.RTC_EnterConfigMode                    0x080025e8   Section        0  stm32f10x_rtc.o(i.RTC_EnterConfigMode)
    i.RTC_ExitConfigMode                     0x080025fc   Section        0  stm32f10x_rtc.o(i.RTC_ExitConfigMode)
    i.RTC_Get                                0x08002610   Section        0  rtc.o(i.RTC_Get)
    i.RTC_GetCounter                         0x08002710   Section        0  stm32f10x_rtc.o(i.RTC_GetCounter)
    i.RTC_GetITStatus                        0x08002724   Section        0  stm32f10x_rtc.o(i.RTC_GetITStatus)
    i.RTC_Get_Week                           0x08002748   Section        0  rtc.o(i.RTC_Get_Week)
    i.RTC_IRQHandler                         0x080027c0   Section        0  rtc.o(i.RTC_IRQHandler)
    i.RTC_ITConfig                           0x08002830   Section        0  stm32f10x_rtc.o(i.RTC_ITConfig)
    i.RTC_Init                               0x08002850   Section        0  rtc.o(i.RTC_Init)
    i.RTC_NVIC_Config                        0x08002910   Section        0  rtc.o(i.RTC_NVIC_Config)
    RTC_NVIC_Config                          0x08002911   Thumb Code    32  rtc.o(i.RTC_NVIC_Config)
    i.RTC_Set                                0x08002930   Section        0  rtc.o(i.RTC_Set)
    i.RTC_SetCounter                         0x080029f8   Section        0  stm32f10x_rtc.o(i.RTC_SetCounter)
    i.RTC_SetPrescaler                       0x08002a14   Section        0  stm32f10x_rtc.o(i.RTC_SetPrescaler)
    i.RTC_WaitForLastTask                    0x08002a34   Section        0  stm32f10x_rtc.o(i.RTC_WaitForLastTask)
    i.RTC_WaitForSynchro                     0x08002a48   Section        0  stm32f10x_rtc.o(i.RTC_WaitForSynchro)
    i.SVC_Handler                            0x08002a6c   Section        0  stm32f10x_it.o(i.SVC_Handler)
    i.SetSysClock                            0x08002a6e   Section        0  system_stm32f10x.o(i.SetSysClock)
    SetSysClock                              0x08002a6f   Thumb Code     8  system_stm32f10x.o(i.SetSysClock)
    i.SetSysClockTo72                        0x08002a78   Section        0  system_stm32f10x.o(i.SetSysClockTo72)
    SetSysClockTo72                          0x08002a79   Thumb Code   214  system_stm32f10x.o(i.SetSysClockTo72)
    i.SysInit                                0x08002b58   Section        0  system.o(i.SysInit)
    i.SysTickDelayMs                         0x08002e14   Section        0  systick.o(i.SysTickDelayMs)
    i.SysTickDelayUs                         0x08002e30   Section        0  systick.o(i.SysTickDelayUs)
    i.SysTickInit                            0x08002e58   Section        0  systick.o(i.SysTickInit)
    i.SysTick_Handler                        0x08002ee0   Section        0  systick.o(i.SysTick_Handler)
    i.SystemInit                             0x08002f4c   Section        0  system_stm32f10x.o(i.SystemInit)
    i.TaskInit                               0x08002fac   Section        0  system.o(i.TaskInit)
    i.TaskRun                                0x08002fe4   Section        0  system.o(i.TaskRun)
    i.USART1_IRQHandler                      0x0800301c   Section        0  usart.o(i.USART1_IRQHandler)
    i.USART2_IRQHandler                      0x08003098   Section        0  usart.o(i.USART2_IRQHandler)
    i.USART3_IRQHandler                      0x080030c8   Section        0  usart.o(i.USART3_IRQHandler)
    i.USART_ClearFlag                        0x080030f8   Section        0  stm32f10x_usart.o(i.USART_ClearFlag)
    i.USART_Cmd                              0x0800310a   Section        0  stm32f10x_usart.o(i.USART_Cmd)
    i.USART_GetFlagStatus                    0x08003122   Section        0  stm32f10x_usart.o(i.USART_GetFlagStatus)
    i.USART_GetITStatus                      0x0800313c   Section        0  stm32f10x_usart.o(i.USART_GetITStatus)
    i.USART_ITConfig                         0x08003190   Section        0  stm32f10x_usart.o(i.USART_ITConfig)
    i.USART_Init                             0x080031dc   Section        0  stm32f10x_usart.o(i.USART_Init)
    i.USART_ReceiveData                      0x080032b4   Section        0  stm32f10x_usart.o(i.USART_ReceiveData)
    i.USART_SendData                         0x080032be   Section        0  stm32f10x_usart.o(i.USART_SendData)
    i.UsageFault_Handler                     0x080032c6   Section        0  stm32f10x_it.o(i.UsageFault_Handler)
    i.Usart1ControlBeepTask                  0x080032ca   Section        0  system.o(i.Usart1ControlBeepTask)
    i.Usart1_RecProcess                      0x080032d4   Section        0  usart.o(i.Usart1_RecProcess)
    i.UsartInit                              0x08003378   Section        0  usart.o(i.UsartInit)
    i.__0printf$5                            0x08003508   Section        0  printf5.o(i.__0printf$5)
    i.__0sprintf$5                           0x08003528   Section        0  printf5.o(i.__0sprintf$5)
    i.__scatterload_copy                     0x08003550   Section       14  handlers.o(i.__scatterload_copy)
    i.__scatterload_null                     0x0800355e   Section        2  handlers.o(i.__scatterload_null)
    i.__scatterload_zeroinit                 0x08003560   Section       14  handlers.o(i.__scatterload_zeroinit)
    i._printf_core                           0x08003570   Section        0  printf5.o(i._printf_core)
    _printf_core                             0x08003571   Thumb Code   658  printf5.o(i._printf_core)
    i._sputc                                 0x08003830   Section        0  printf5.o(i._sputc)
    _sputc                                   0x08003831   Thumb Code    10  printf5.o(i._sputc)
    i.button_attach                          0x0800383a   Section        0  multi_button.o(i.button_attach)
    i.button_callback1                       0x08003844   Section        0  btn_menu.o(i.button_callback1)
    i.button_callback2                       0x08003970   Section        0  btn_menu.o(i.button_callback2)
    i.button_callback3                       0x08003a7c   Section        0  btn_menu.o(i.button_callback3)
    i.button_handler                         0x08003d4c   Section        0  multi_button.o(i.button_handler)
    i.button_init                            0x08003f76   Section        0  multi_button.o(i.button_init)
    i.button_start                           0x08003fa8   Section        0  multi_button.o(i.button_start)
    i.button_ticks                           0x08003fd4   Section        0  multi_button.o(i.button_ticks)
    i.fputc                                  0x08003ff0   Section        0  usart.o(i.fputc)
    i.get_button_event                       0x08004014   Section        0  multi_button.o(i.get_button_event)
    i.main                                   0x0800401c   Section        0  main.o(i.main)
    i.read_button1_GPIO                      0x08004028   Section        0  gpio.o(i.read_button1_GPIO)
    i.read_button2_GPIO                      0x08004038   Section        0  gpio.o(i.read_button2_GPIO)
    i.read_button3_GPIO                      0x08004048   Section        0  gpio.o(i.read_button3_GPIO)
    i.time_ADD                               0x08004058   Section        0  btn_menu.o(i.time_ADD)
    i.time_Sub                               0x08004194   Section        0  btn_menu.o(i.time_Sub)
    .constdata                               0x080042d0   Section       24  rtc.o(.constdata)
    .constdata                               0x080042e8   Section     6080  lcd.o(.constdata)
    .data                                    0x20000000   Section       20  stm32f10x_rcc.o(.data)
    APBAHBPrescTable                         0x20000000   Data          16  stm32f10x_rcc.o(.data)
    ADCPrescTable                            0x20000010   Data           4  stm32f10x_rcc.o(.data)
    .data                                    0x20000014   Section       12  main.o(.data)
    .data                                    0x20000020   Section       49  system.o(.data)
    cnt                                      0x20000050   Data           1  system.o(.data)
    .data                                    0x20000054   Section        4  systick.o(.data)
    g_iRunTimer                              0x20000054   Data           4  systick.o(.data)
    .data                                    0x20000058   Section        4  usart.o(.data)
    s_USART1_RecFrameLen                     0x20000058   Data           2  usart.o(.data)
    .data                                    0x2000005c   Section        2  rtc.o(.data)
    daycnt                                   0x2000005c   Data           2  rtc.o(.data)
    .data                                    0x2000005e   Section        4  lcd.o(.data)
    .data                                    0x20000064   Section        4  multi_button.o(.data)
    head_handle                              0x20000064   Data           4  multi_button.o(.data)
    .data                                    0x20000068   Section       22  btn_menu.o(.data)
    .data                                    0x20000080   Section        4  stdout.o(.data)
    .bss                                     0x20000084   Section      180  system.o(.bss)
    .bss                                     0x20000138   Section      100  systick.o(.bss)
    .bss                                     0x2000019c   Section     1064  usart.o(.bss)
    s_sUsart1_ProcessBuf                     0x200003c4   Data         256  usart.o(.bss)
    .bss                                     0x200005c4   Section       10  rtc.o(.bss)
    .bss                                     0x200005ce   Section       14  lcd.o(.bss)
    .bss                                     0x200005dc   Section      100  btn_menu.o(.bss)
    STACK                                    0x20000640   Section     1024  startup_stm32f10x_hd.o(STACK)

    Global Symbols

    Symbol Name                              Value     Ov Type        Size  Object(Section)

    BuildAttributes$$THM_ISAv4$P$D$K$B$S$PE$A:L22UL41UL21$X:L11$S22US41US21$IEEE1$IW$USESV6$~STKCKD$USESV7$~SHL$OSPACE$ROPI$EBA8$MICROLIB$REQ8$PRES8$EABIv2 0x00000000   Number         0  anon$$obj.o ABSOLUTE
    __ARM_use_no_argv                        0x00000000   Number         0  main.o ABSOLUTE
    _printf_a                                0x00000000   Number         0  stubs.o ABSOLUTE
    _printf_c                                0x00000000   Number         0  stubs.o ABSOLUTE
    _printf_charcount                        0x00000000   Number         0  stubs.o ABSOLUTE
    _printf_d                                0x00000000   Number         0  stubs.o ABSOLUTE
    _printf_e                                0x00000000   Number         0  stubs.o ABSOLUTE
    _printf_f                                0x00000000   Number         0  stubs.o ABSOLUTE
    _printf_flags                            0x00000000   Number         0  stubs.o ABSOLUTE
    _printf_fp_dec                           0x00000000   Number         0  stubs.o ABSOLUTE
    _printf_fp_hex                           0x00000000   Number         0  stubs.o ABSOLUTE
    _printf_g                                0x00000000   Number         0  stubs.o ABSOLUTE
    _printf_i                                0x00000000   Number         0  stubs.o ABSOLUTE
    _printf_int_dec                          0x00000000   Number         0  stubs.o ABSOLUTE
    _printf_l                                0x00000000   Number         0  stubs.o ABSOLUTE
    _printf_lc                               0x00000000   Number         0  stubs.o ABSOLUTE
    _printf_ll                               0x00000000   Number         0  stubs.o ABSOLUTE
    _printf_lld                              0x00000000   Number         0  stubs.o ABSOLUTE
    _printf_lli                              0x00000000   Number         0  stubs.o ABSOLUTE
    _printf_llo                              0x00000000   Number         0  stubs.o ABSOLUTE
    _printf_llu                              0x00000000   Number         0  stubs.o ABSOLUTE
    _printf_llx                              0x00000000   Number         0  stubs.o ABSOLUTE
    _printf_longlong_dec                     0x00000000   Number         0  stubs.o ABSOLUTE
    _printf_longlong_hex                     0x00000000   Number         0  stubs.o ABSOLUTE
    _printf_longlong_oct                     0x00000000   Number         0  stubs.o ABSOLUTE
    _printf_ls                               0x00000000   Number         0  stubs.o ABSOLUTE
    _printf_mbtowc                           0x00000000   Number         0  stubs.o ABSOLUTE
    _printf_n                                0x00000000   Number         0  stubs.o ABSOLUTE
    _printf_o                                0x00000000   Number         0  stubs.o ABSOLUTE
    _printf_p                                0x00000000   Number         0  stubs.o ABSOLUTE
    _printf_percent                          0x00000000   Number         0  stubs.o ABSOLUTE
    _printf_pre_padding                      0x00000000   Number         0  stubs.o ABSOLUTE
    _printf_return_value                     0x00000000   Number         0  stubs.o ABSOLUTE
    _printf_s                                0x00000000   Number         0  stubs.o ABSOLUTE
    _printf_sizespec                         0x00000000   Number         0  stubs.o ABSOLUTE
    _printf_str                              0x00000000   Number         0  stubs.o ABSOLUTE
    _printf_truncate_signed                  0x00000000   Number         0  stubs.o ABSOLUTE
    _printf_truncate_unsigned                0x00000000   Number         0  stubs.o ABSOLUTE
    _printf_u                                0x00000000   Number         0  stubs.o ABSOLUTE
    _printf_wc                               0x00000000   Number         0  stubs.o ABSOLUTE
    _printf_wctomb                           0x00000000   Number         0  stubs.o ABSOLUTE
    _printf_widthprec                        0x00000000   Number         0  stubs.o ABSOLUTE
    _printf_x                                0x00000000   Number         0  stubs.o ABSOLUTE
    __cpp_initialize__aeabi_                  - Undefined Weak Reference
    __cxa_finalize                            - Undefined Weak Reference
    __decompress                              - Undefined Weak Reference
    _clock_init                               - Undefined Weak Reference
    _microlib_exit                            - Undefined Weak Reference
    __Vectors_Size                           0x00000130   Number         0  startup_stm32f10x_hd.o ABSOLUTE
    __Vectors                                0x08000000   Data           4  startup_stm32f10x_hd.o(RESET)
    __Vectors_End                            0x08000130   Data           0  startup_stm32f10x_hd.o(RESET)
    __main                                   0x08000131   Thumb Code     0  entry.o(.ARM.Collect$$$$00000000)
    _main_stk                                0x08000131   Thumb Code     0  entry2.o(.ARM.Collect$$$$00000001)
    _main_scatterload                        0x08000135   Thumb Code     0  entry5.o(.ARM.Collect$$$$00000004)
    __main_after_scatterload                 0x08000139   Thumb Code     0  entry5.o(.ARM.Collect$$$$00000004)
    _main_clock                              0x08000139   Thumb Code     0  entry7b.o(.ARM.Collect$$$$00000008)
    _main_cpp_init                           0x08000139   Thumb Code     0  entry8b.o(.ARM.Collect$$$$0000000A)
    _main_init                               0x08000139   Thumb Code     0  entry9a.o(.ARM.Collect$$$$0000000B)
    __rt_final_cpp                           0x08000141   Thumb Code     0  entry10a.o(.ARM.Collect$$$$0000000D)
    __rt_final_exit                          0x08000141   Thumb Code     0  entry11a.o(.ARM.Collect$$$$0000000F)
    Reset_Handler                            0x08000145   Thumb Code     8  startup_stm32f10x_hd.o(.text)
    ADC1_2_IRQHandler                        0x0800015f   Thumb Code     0  startup_stm32f10x_hd.o(.text)
    ADC3_IRQHandler                          0x0800015f   Thumb Code     0  startup_stm32f10x_hd.o(.text)
    CAN1_RX1_IRQHandler                      0x0800015f   Thumb Code     0  startup_stm32f10x_hd.o(.text)
    CAN1_SCE_IRQHandler                      0x0800015f   Thumb Code     0  startup_stm32f10x_hd.o(.text)
    DMA1_Channel1_IRQHandler                 0x0800015f   Thumb Code     0  startup_stm32f10x_hd.o(.text)
    DMA1_Channel2_IRQHandler                 0x0800015f   Thumb Code     0  startup_stm32f10x_hd.o(.text)
    DMA1_Channel3_IRQHandler                 0x0800015f   Thumb Code     0  startup_stm32f10x_hd.o(.text)
    DMA1_Channel4_IRQHandler                 0x0800015f   Thumb Code     0  startup_stm32f10x_hd.o(.text)
    DMA1_Channel5_IRQHandler                 0x0800015f   Thumb Code     0  startup_stm32f10x_hd.o(.text)
    DMA1_Channel6_IRQHandler                 0x0800015f   Thumb Code     0  startup_stm32f10x_hd.o(.text)
    DMA1_Channel7_IRQHandler                 0x0800015f   Thumb Code     0  startup_stm32f10x_hd.o(.text)
    DMA2_Channel1_IRQHandler                 0x0800015f   Thumb Code     0  startup_stm32f10x_hd.o(.text)
    DMA2_Channel2_IRQHandler                 0x0800015f   Thumb Code     0  startup_stm32f10x_hd.o(.text)
    DMA2_Channel3_IRQHandler                 0x0800015f   Thumb Code     0  startup_stm32f10x_hd.o(.text)
    DMA2_Channel4_5_IRQHandler               0x0800015f   Thumb Code     0  startup_stm32f10x_hd.o(.text)
    EXTI15_10_IRQHandler                     0x0800015f   Thumb Code     0  startup_stm32f10x_hd.o(.text)
    EXTI1_IRQHandler                         0x0800015f   Thumb Code     0  startup_stm32f10x_hd.o(.text)
    EXTI2_IRQHandler                         0x0800015f   Thumb Code     0  startup_stm32f10x_hd.o(.text)
    EXTI9_5_IRQHandler                       0x0800015f   Thumb Code     0  startup_stm32f10x_hd.o(.text)
    FLASH_IRQHandler                         0x0800015f   Thumb Code     0  startup_stm32f10x_hd.o(.text)
    FSMC_IRQHandler                          0x0800015f   Thumb Code     0  startup_stm32f10x_hd.o(.text)
    I2C1_ER_IRQHandler                       0x0800015f   Thumb Code     0  startup_stm32f10x_hd.o(.text)
    I2C1_EV_IRQHandler                       0x0800015f   Thumb Code     0  startup_stm32f10x_hd.o(.text)
    I2C2_ER_IRQHandler                       0x0800015f   Thumb Code     0  startup_stm32f10x_hd.o(.text)
    I2C2_EV_IRQHandler                       0x0800015f   Thumb Code     0  startup_stm32f10x_hd.o(.text)
    PVD_IRQHandler                           0x0800015f   Thumb Code     0  startup_stm32f10x_hd.o(.text)
    RCC_IRQHandler                           0x0800015f   Thumb Code     0  startup_stm32f10x_hd.o(.text)
    RTCAlarm_IRQHandler                      0x0800015f   Thumb Code     0  startup_stm32f10x_hd.o(.text)
    SDIO_IRQHandler                          0x0800015f   Thumb Code     0  startup_stm32f10x_hd.o(.text)
    SPI1_IRQHandler                          0x0800015f   Thumb Code     0  startup_stm32f10x_hd.o(.text)
    SPI2_IRQHandler                          0x0800015f   Thumb Code     0  startup_stm32f10x_hd.o(.text)
    SPI3_IRQHandler                          0x0800015f   Thumb Code     0  startup_stm32f10x_hd.o(.text)
    TAMPER_IRQHandler                        0x0800015f   Thumb Code     0  startup_stm32f10x_hd.o(.text)
    TIM1_BRK_IRQHandler                      0x0800015f   Thumb Code     0  startup_stm32f10x_hd.o(.text)
    TIM1_CC_IRQHandler                       0x0800015f   Thumb Code     0  startup_stm32f10x_hd.o(.text)
    TIM1_TRG_COM_IRQHandler                  0x0800015f   Thumb Code     0  startup_stm32f10x_hd.o(.text)
    TIM1_UP_IRQHandler                       0x0800015f   Thumb Code     0  startup_stm32f10x_hd.o(.text)
    TIM2_IRQHandler                          0x0800015f   Thumb Code     0  startup_stm32f10x_hd.o(.text)
    TIM3_IRQHandler                          0x0800015f   Thumb Code     0  startup_stm32f10x_hd.o(.text)
    TIM4_IRQHandler                          0x0800015f   Thumb Code     0  startup_stm32f10x_hd.o(.text)
    TIM5_IRQHandler                          0x0800015f   Thumb Code     0  startup_stm32f10x_hd.o(.text)
    TIM6_IRQHandler                          0x0800015f   Thumb Code     0  startup_stm32f10x_hd.o(.text)
    TIM7_IRQHandler                          0x0800015f   Thumb Code     0  startup_stm32f10x_hd.o(.text)
    TIM8_BRK_IRQHandler                      0x0800015f   Thumb Code     0  startup_stm32f10x_hd.o(.text)
    TIM8_CC_IRQHandler                       0x0800015f   Thumb Code     0  startup_stm32f10x_hd.o(.text)
    TIM8_TRG_COM_IRQHandler                  0x0800015f   Thumb Code     0  startup_stm32f10x_hd.o(.text)
    TIM8_UP_IRQHandler                       0x0800015f   Thumb Code     0  startup_stm32f10x_hd.o(.text)
    UART4_IRQHandler                         0x0800015f   Thumb Code     0  startup_stm32f10x_hd.o(.text)
    UART5_IRQHandler                         0x0800015f   Thumb Code     0  startup_stm32f10x_hd.o(.text)
    USBWakeUp_IRQHandler                     0x0800015f   Thumb Code     0  startup_stm32f10x_hd.o(.text)
    USB_HP_CAN1_TX_IRQHandler                0x0800015f   Thumb Code     0  startup_stm32f10x_hd.o(.text)
    USB_LP_CAN1_RX0_IRQHandler               0x0800015f   Thumb Code     0  startup_stm32f10x_hd.o(.text)
    WWDG_IRQHandler                          0x0800015f   Thumb Code     0  startup_stm32f10x_hd.o(.text)
    __aeabi_memset                           0x08000169   Thumb Code    14  memseta.o(.text)
    __aeabi_memset4                          0x08000169   Thumb Code     0  memseta.o(.text)
    __aeabi_memset8                          0x08000169   Thumb Code     0  memseta.o(.text)
    __aeabi_memclr                           0x08000177   Thumb Code     4  memseta.o(.text)
    __aeabi_memclr4                          0x08000177   Thumb Code     0  memseta.o(.text)
    __aeabi_memclr8                          0x08000177   Thumb Code     0  memseta.o(.text)
    _memset$wrapper                          0x0800017b   Thumb Code    18  memseta.o(.text)
    strcmp                                   0x0800018d   Thumb Code    28  strcmp.o(.text)
    __aeabi_uldivmod                         0x080001a9   Thumb Code    98  uldiv.o(.text)
    __aeabi_llsr                             0x0800020b   Thumb Code    32  llushr.o(.text)
    _ll_ushift_r                             0x0800020b   Thumb Code     0  llushr.o(.text)
    __scatterload                            0x0800022d   Thumb Code    28  init.o(.text)
    __scatterload_rt2                        0x0800022d   Thumb Code     0  init.o(.text)
    __aeabi_llsl                             0x08000251   Thumb Code    30  llshl.o(.text)
    _ll_shift_l                              0x08000251   Thumb Code     0  llshl.o(.text)
    AT24CXX_Check                            0x0800026f   Thumb Code    46  24cxx.o(i.AT24CXX_Check)
    AT24CXX_Init                             0x0800029d   Thumb Code     8  24cxx.o(i.AT24CXX_Init)
    AT24CXX_Read                             0x080002a5   Thumb Code    34  24cxx.o(i.AT24CXX_Read)
    AT24CXX_ReadOneByte                      0x080002c7   Thumb Code    88  24cxx.o(i.AT24CXX_ReadOneByte)
    AT24CXX_Write                            0x0800031f   Thumb Code    36  24cxx.o(i.AT24CXX_Write)
    AT24CXX_WriteOneByte                     0x08000343   Thumb Code    80  24cxx.o(i.AT24CXX_WriteOneByte)
    ATask                                    0x08000395   Thumb Code    76  system.o(i.ATask)
    BKP_DeInit                               0x080003fd   Thumb Code    16  stm32f10x_bkp.o(i.BKP_DeInit)
    BKP_ReadBackupRegister                   0x0800040d   Thumb Code    24  stm32f10x_bkp.o(i.BKP_ReadBackupRegister)
    BKP_WriteBackupRegister                  0x08000429   Thumb Code    22  stm32f10x_bkp.o(i.BKP_WriteBackupRegister)
    BTask                                    0x08000445   Thumb Code   352  system.o(i.BTask)
    BeepGpioInit                             0x08000619   Thumb Code    38  gpio.o(i.BeepGpioInit)
    BeepOff                                  0x08000645   Thumb Code    14  gpio.o(i.BeepOff)
    BeepOn                                   0x08000659   Thumb Code    14  gpio.o(i.BeepOn)
    BtnTask                                  0x0800066d   Thumb Code     8  system.o(i.BtnTask)
    BusFault_Handler                         0x08000675   Thumb Code     4  stm32f10x_it.o(i.BusFault_Handler)
    CTask                                    0x08000679   Thumb Code   226  system.o(i.CTask)
    CpuInit                                  0x080007b5   Thumb Code    12  system.o(i.CpuInit)
    DHT11_Check                              0x080007c1   Thumb Code    92  dht11.o(i.DHT11_Check)
    DHT11_Init                               0x08000825   Thumb Code    58  dht11.o(i.DHT11_Init)
    DHT11_Read_Bit                           0x08000865   Thumb Code    70  dht11.o(i.DHT11_Read_Bit)
    DHT11_Read_Byte                          0x080008b1   Thumb Code    30  dht11.o(i.DHT11_Read_Byte)
    DHT11_Read_Data                          0x080008cf   Thumb Code    88  dht11.o(i.DHT11_Read_Data)
    DHT11_Rst                                0x08000929   Thumb Code    52  dht11.o(i.DHT11_Rst)
    DebugMon_Handler                         0x08000969   Thumb Code     2  stm32f10x_it.o(i.DebugMon_Handler)
    EXTI0_IRQHandler                         0x0800096d   Thumb Code    28  exti.o(i.EXTI0_IRQHandler)
    EXTI3_IRQHandler                         0x08000995   Thumb Code    26  exti.o(i.EXTI3_IRQHandler)
    EXTI4_IRQHandler                         0x080009bd   Thumb Code    26  exti.o(i.EXTI4_IRQHandler)
    EXTI_ClearITPendingBit                   0x080009e5   Thumb Code     6  stm32f10x_exti.o(i.EXTI_ClearITPendingBit)
    FIRST_SHOW                               0x080009f1   Thumb Code   274  btn_menu.o(i.FIRST_SHOW)
    FSMC_NORSRAMCmd                          0x08000b39   Thumb Code    46  stm32f10x_fsmc.o(i.FSMC_NORSRAMCmd)
    FSMC_NORSRAMInit                         0x08000b6d   Thumb Code   230  stm32f10x_fsmc.o(i.FSMC_NORSRAMInit)
    GPIO_Init                                0x08000c53   Thumb Code   278  stm32f10x_gpio.o(i.GPIO_Init)
    GPIO_ReadInputDataBit                    0x08000d69   Thumb Code    18  stm32f10x_gpio.o(i.GPIO_ReadInputDataBit)
    GPIO_ResetBits                           0x08000d7b   Thumb Code     4  stm32f10x_gpio.o(i.GPIO_ResetBits)
    GPIO_SetBits                             0x08000d7f   Thumb Code     4  stm32f10x_gpio.o(i.GPIO_SetBits)
    GpioToggle                               0x08000d83   Thumb Code     8  gpio.o(i.GpioToggle)
    HardFault_Handler                        0x08000d8b   Thumb Code     4  stm32f10x_it.o(i.HardFault_Handler)
    IIC_Ack                                  0x08000d91   Thumb Code    66  myiic.o(i.IIC_Ack)
    IIC_Init                                 0x08000de1   Thumb Code    46  myiic.o(i.IIC_Init)
    IIC_NAck                                 0x08000e15   Thumb Code    66  myiic.o(i.IIC_NAck)
    IIC_Read_Byte                            0x08000e65   Thumb Code    98  myiic.o(i.IIC_Read_Byte)
    IIC_Send_Byte                            0x08000ed5   Thumb Code    90  myiic.o(i.IIC_Send_Byte)
    IIC_Start                                0x08000f3d   Thumb Code    64  myiic.o(i.IIC_Start)
    IIC_Stop                                 0x08000f89   Thumb Code    62  myiic.o(i.IIC_Stop)
    IIC_Wait_Ack                             0x08000fd5   Thumb Code    86  myiic.o(i.IIC_Wait_Ack)
    Is_Leap_Year                             0x08001039   Thumb Code    58  rtc.o(i.Is_Leap_Year)
    KEY_Init                                 0x08001075   Thumb Code    52  gpio.o(i.KEY_Init)
    LCD_Clear                                0x080010b1   Thumb Code   100  lcd.o(i.LCD_Clear)
    LCD_Display_Dir                          0x0800111d   Thumb Code   444  lcd.o(i.LCD_Display_Dir)
    LCD_DrawLine                             0x080012dd   Thumb Code   176  lcd.o(i.LCD_DrawLine)
    LCD_DrawPoint                            0x0800138d   Thumb Code    28  lcd.o(i.LCD_DrawPoint)
    LCD_Fast_DrawPoint                       0x080013b1   Thumb Code   370  lcd.o(i.LCD_Fast_DrawPoint)
    LCD_Fill                                 0x0800152d   Thumb Code   178  lcd.o(i.LCD_Fill)
    LCD_Init                                 0x080015e9   Thumb Code  1324  lcd.o(i.LCD_Init)
    LCD_Pow                                  0x08001b19   Thumb Code    22  lcd.o(i.LCD_Pow)
    LCD_RD_DATA                              0x08001b31   Thumb Code    14  lcd.o(i.LCD_RD_DATA)
    LCD_ReadReg                              0x08001b45   Thumb Code    16  lcd.o(i.LCD_ReadReg)
    LCD_Scan_Dir                             0x08001b55   Thumb Code   744  lcd.o(i.LCD_Scan_Dir)
    LCD_SetCursor                            0x08001e41   Thumb Code   418  lcd.o(i.LCD_SetCursor)
    LCD_ShowChar                             0x08001fe9   Thumb Code   272  lcd.o(i.LCD_ShowChar)
    LCD_ShowNum                              0x08002111   Thumb Code   148  lcd.o(i.LCD_ShowNum)
    LCD_ShowString                           0x080021a5   Thumb Code   102  lcd.o(i.LCD_ShowString)
    LCD_WR_DATA                              0x0800220d   Thumb Code     6  lcd.o(i.LCD_WR_DATA)
    LCD_WR_REG                               0x08002219   Thumb Code     6  lcd.o(i.LCD_WR_REG)
    LCD_WriteRAM_Prepare                     0x08002225   Thumb Code    10  lcd.o(i.LCD_WriteRAM_Prepare)
    LCD_WriteReg                             0x08002239   Thumb Code    10  lcd.o(i.LCD_WriteReg)
    LedControl                               0x08002249   Thumb Code   100  gpio.o(i.LedControl)
    LedGpioInit                              0x080022b5   Thumb Code    46  gpio.o(i.LedGpioInit)
    MemManage_Handler                        0x080022ed   Thumb Code     4  stm32f10x_it.o(i.MemManage_Handler)
    NMI_Handler                              0x080022f1   Thumb Code     2  stm32f10x_it.o(i.NMI_Handler)
    NVIC_Init                                0x080022f5   Thumb Code   100  misc.o(i.NVIC_Init)
    NVIC_PriorityGroupConfig                 0x08002365   Thumb Code    10  misc.o(i.NVIC_PriorityGroupConfig)
    PWR_BackupAccessCmd                      0x08002379   Thumb Code     6  stm32f10x_pwr.o(i.PWR_BackupAccessCmd)
    PendSV_Handler                           0x08002385   Thumb Code     2  stm32f10x_it.o(i.PendSV_Handler)
    QueueInPut                               0x08002387   Thumb Code    70  queue.o(i.QueueInPut)
    QueueInit                                0x080023cd   Thumb Code    14  queue.o(i.QueueInit)
    QueueOutPut                              0x080023db   Thumb Code    50  queue.o(i.QueueOutPut)
    RCC_AHBPeriphClockCmd                    0x0800240d   Thumb Code    26  stm32f10x_rcc.o(i.RCC_AHBPeriphClockCmd)
    RCC_APB1PeriphClockCmd                   0x0800242d   Thumb Code    26  stm32f10x_rcc.o(i.RCC_APB1PeriphClockCmd)
    RCC_APB2PeriphClockCmd                   0x0800244d   Thumb Code    26  stm32f10x_rcc.o(i.RCC_APB2PeriphClockCmd)
    RCC_BackupResetCmd                       0x0800246d   Thumb Code     6  stm32f10x_rcc.o(i.RCC_BackupResetCmd)
    RCC_GetClocksFreq                        0x08002479   Thumb Code   192  stm32f10x_rcc.o(i.RCC_GetClocksFreq)
    RCC_GetFlagStatus                        0x0800254d   Thumb Code    56  stm32f10x_rcc.o(i.RCC_GetFlagStatus)
    RCC_LSEConfig                            0x08002589   Thumb Code    46  stm32f10x_rcc.o(i.RCC_LSEConfig)
    RCC_RTCCLKCmd                            0x080025bd   Thumb Code     6  stm32f10x_rcc.o(i.RCC_RTCCLKCmd)
    RCC_RTCCLKConfig                         0x080025c9   Thumb Code    12  stm32f10x_rcc.o(i.RCC_RTCCLKConfig)
    RTC_ClearITPendingBit                    0x080025d9   Thumb Code    12  stm32f10x_rtc.o(i.RTC_ClearITPendingBit)
    RTC_EnterConfigMode                      0x080025e9   Thumb Code    14  stm32f10x_rtc.o(i.RTC_EnterConfigMode)
    RTC_ExitConfigMode                       0x080025fd   Thumb Code    16  stm32f10x_rtc.o(i.RTC_ExitConfigMode)
    RTC_Get                                  0x08002611   Thumb Code   240  rtc.o(i.RTC_Get)
    RTC_GetCounter                           0x08002711   Thumb Code    16  stm32f10x_rtc.o(i.RTC_GetCounter)
    RTC_GetITStatus                          0x08002725   Thumb Code    32  stm32f10x_rtc.o(i.RTC_GetITStatus)
    RTC_Get_Week                             0x08002749   Thumb Code   116  rtc.o(i.RTC_Get_Week)
    RTC_IRQHandler                           0x080027c1   Thumb Code    76  rtc.o(i.RTC_IRQHandler)
    RTC_ITConfig                             0x08002831   Thumb Code    26  stm32f10x_rtc.o(i.RTC_ITConfig)
    RTC_Init                                 0x08002851   Thumb Code   192  rtc.o(i.RTC_Init)
    RTC_Set                                  0x08002931   Thumb Code   184  rtc.o(i.RTC_Set)
    RTC_SetCounter                           0x080029f9   Thumb Code    24  stm32f10x_rtc.o(i.RTC_SetCounter)
    RTC_SetPrescaler                         0x08002a15   Thumb Code    26  stm32f10x_rtc.o(i.RTC_SetPrescaler)
    RTC_WaitForLastTask                      0x08002a35   Thumb Code    16  stm32f10x_rtc.o(i.RTC_WaitForLastTask)
    RTC_WaitForSynchro                       0x08002a49   Thumb Code    30  stm32f10x_rtc.o(i.RTC_WaitForSynchro)
    SVC_Handler                              0x08002a6d   Thumb Code     2  stm32f10x_it.o(i.SVC_Handler)
    SysInit                                  0x08002b59   Thumb Code   412  system.o(i.SysInit)
    SysTickDelayMs                           0x08002e15   Thumb Code    24  systick.o(i.SysTickDelayMs)
    SysTickDelayUs                           0x08002e31   Thumb Code    38  systick.o(i.SysTickDelayUs)
    SysTickInit                              0x08002e59   Thumb Code   114  systick.o(i.SysTickInit)
    SysTick_Handler                          0x08002ee1   Thumb Code    94  systick.o(i.SysTick_Handler)
    SystemInit                               0x08002f4d   Thumb Code    78  system_stm32f10x.o(i.SystemInit)
    TaskInit                                 0x08002fad   Thumb Code    48  system.o(i.TaskInit)
    TaskRun                                  0x08002fe5   Thumb Code    48  system.o(i.TaskRun)
    USART1_IRQHandler                        0x0800301d   Thumb Code   108  usart.o(i.USART1_IRQHandler)
    USART2_IRQHandler                        0x08003099   Thumb Code    42  usart.o(i.USART2_IRQHandler)
    USART3_IRQHandler                        0x080030c9   Thumb Code    42  usart.o(i.USART3_IRQHandler)
    USART_ClearFlag                          0x080030f9   Thumb Code    18  stm32f10x_usart.o(i.USART_ClearFlag)
    USART_Cmd                                0x0800310b   Thumb Code    24  stm32f10x_usart.o(i.USART_Cmd)
    USART_GetFlagStatus                      0x08003123   Thumb Code    26  stm32f10x_usart.o(i.USART_GetFlagStatus)
    USART_GetITStatus                        0x0800313d   Thumb Code    84  stm32f10x_usart.o(i.USART_GetITStatus)
    USART_ITConfig                           0x08003191   Thumb Code    74  stm32f10x_usart.o(i.USART_ITConfig)
    USART_Init                               0x080031dd   Thumb Code   210  stm32f10x_usart.o(i.USART_Init)
    USART_ReceiveData                        0x080032b5   Thumb Code    10  stm32f10x_usart.o(i.USART_ReceiveData)
    USART_SendData                           0x080032bf   Thumb Code     8  stm32f10x_usart.o(i.USART_SendData)
    UsageFault_Handler                       0x080032c7   Thumb Code     4  stm32f10x_it.o(i.UsageFault_Handler)
    Usart1ControlBeepTask                    0x080032cb   Thumb Code     8  system.o(i.Usart1ControlBeepTask)
    Usart1_RecProcess                        0x080032d5   Thumb Code   112  usart.o(i.Usart1_RecProcess)
    UsartInit                                0x08003379   Thumb Code   370  usart.o(i.UsartInit)
    __0printf$5                              0x08003509   Thumb Code    22  printf5.o(i.__0printf$5)
    __1printf$5                              0x08003509   Thumb Code     0  printf5.o(i.__0printf$5)
    __2printf                                0x08003509   Thumb Code     0  printf5.o(i.__0printf$5)
    __0sprintf$5                             0x08003529   Thumb Code    34  printf5.o(i.__0sprintf$5)
    __1sprintf$5                             0x08003529   Thumb Code     0  printf5.o(i.__0sprintf$5)
    __2sprintf                               0x08003529   Thumb Code     0  printf5.o(i.__0sprintf$5)
    __scatterload_copy                       0x08003551   Thumb Code    14  handlers.o(i.__scatterload_copy)
    __scatterload_null                       0x0800355f   Thumb Code     2  handlers.o(i.__scatterload_null)
    __scatterload_zeroinit                   0x08003561   Thumb Code    14  handlers.o(i.__scatterload_zeroinit)
    button_attach                            0x0800383b   Thumb Code    10  multi_button.o(i.button_attach)
    button_callback1                         0x08003845   Thumb Code   136  btn_menu.o(i.button_callback1)
    button_callback2                         0x08003971   Thumb Code   148  btn_menu.o(i.button_callback2)
    button_callback3                         0x08003a7d   Thumb Code   482  btn_menu.o(i.button_callback3)
    button_handler                           0x08003d4d   Thumb Code   554  multi_button.o(i.button_handler)
    button_init                              0x08003f77   Thumb Code    50  multi_button.o(i.button_init)
    button_start                             0x08003fa9   Thumb Code    38  multi_button.o(i.button_start)
    button_ticks                             0x08003fd5   Thumb Code    22  multi_button.o(i.button_ticks)
    fputc                                    0x08003ff1   Thumb Code    32  usart.o(i.fputc)
    get_button_event                         0x08004015   Thumb Code     8  multi_button.o(i.get_button_event)
    main                                     0x0800401d   Thumb Code    12  main.o(i.main)
    read_button1_GPIO                        0x08004029   Thumb Code    12  gpio.o(i.read_button1_GPIO)
    read_button2_GPIO                        0x08004039   Thumb Code    12  gpio.o(i.read_button2_GPIO)
    read_button3_GPIO                        0x08004049   Thumb Code    12  gpio.o(i.read_button3_GPIO)
    time_ADD                                 0x08004059   Thumb Code   276  btn_menu.o(i.time_ADD)
    time_Sub                                 0x08004195   Thumb Code   276  btn_menu.o(i.time_Sub)
    table_week                               0x080042d0   Data          12  rtc.o(.constdata)
    mon_table                                0x080042dc   Data          12  rtc.o(.constdata)
    asc2_1206                                0x080042e8   Data        1140  lcd.o(.constdata)
    asc2_1608                                0x0800475c   Data        1520  lcd.o(.constdata)
    asc2_2412                                0x08004d4c   Data        3420  lcd.o(.constdata)
    Region$$Table$$Base                      0x08005aa8   Number         0  anon$$obj.o(Region$$Table)
    Region$$Table$$Limit                     0x08005ac8   Number         0  anon$$obj.o(Region$$Table)
    g_Var                                    0x20000014   Data           1  main.o(.data)
    Usart1RightRecvTimes                     0x20000018   Data           4  main.o(.data)
    Usart2SendTimes                          0x2000001c   Data           4  main.o(.data)
    temperature                              0x20000020   Data           1  system.o(.data)
    humidity                                 0x20000021   Data           1  system.o(.data)
    Task                                     0x20000024   Data          40  system.o(.data)
    t                                        0x2000004c   Data           1  system.o(.data)
    temp_count                               0x2000004e   Data           2  system.o(.data)
    g_USART2_RecPos                          0x2000005a   Data           2  usart.o(.data)
    POINT_COLOR                              0x2000005e   Data           2  lcd.o(.data)
    BACK_COLOR                               0x20000060   Data           2  lcd.o(.data)
    menu                                     0x20000068   Data           8  btn_menu.o(.data)
    SELECT_TIME                              0x20000070   Data           1  btn_menu.o(.data)
    set_year                                 0x20000072   Data           2  btn_menu.o(.data)
    set_month                                0x20000074   Data           2  btn_menu.o(.data)
    set_day                                  0x20000076   Data           2  btn_menu.o(.data)
    set_hour                                 0x20000078   Data           2  btn_menu.o(.data)
    set_min                                  0x2000007a   Data           2  btn_menu.o(.data)
    cnt_24c02                                0x2000007c   Data           1  btn_menu.o(.data)
    menu_state                               0x2000007d   Data           1  btn_menu.o(.data)
    __stdout                                 0x20000080   Data           4  stdout.o(.data)
    button1                                  0x20000084   Data          40  system.o(.bss)
    button2                                  0x200000ac   Data          40  system.o(.bss)
    button3                                  0x200000d4   Data          40  system.o(.bss)
    date_str                                 0x200000fc   Data          20  system.o(.bss)
    Sensor_str                               0x20000110   Data          40  system.o(.bss)
    sysTimer                                 0x20000138   Data          36  systick.o(.bss)
    TaskTimer                                0x2000015c   Data          64  systick.o(.bss)
    g_tUsart1RecvQueue                       0x2000019c   Data          20  usart.o(.bss)
    g_tUsart1RecvFrameLenQueue               0x200001b0   Data          20  usart.o(.bss)
    g_USART1_RxBuf                           0x200001c4   Data         256  usart.o(.bss)
    g_USART1_RecvFrameLenBuf                 0x200002c4   Data         256  usart.o(.bss)
    g_USART2_RxBuf                           0x200004c4   Data         256  usart.o(.bss)
    calendar                                 0x200005c4   Data          10  rtc.o(.bss)
    lcddev                                   0x200005ce   Data          14  lcd.o(.bss)
    Data_24c02                               0x200005dc   Data          80  btn_menu.o(.bss)
    str_24c02                                0x2000062c   Data          20  btn_menu.o(.bss)
    __initial_sp                             0x20000a40   Data           0  startup_stm32f10x_hd.o(STACK)



==============================================================================

Memory Map of the image

  Image Entry point : 0x08000131

  Load Region LR_IROM1 (Base: 0x08000000, Size: 0x00005b4c, Max: 0x00080000, ABSOLUTE)

    Execution Region ER_IROM1 (Exec base: 0x08000000, Load base: 0x08000000, Size: 0x00005ac8, Max: 0x00080000, ABSOLUTE)

    Exec Addr    Load Addr    Size         Type   Attr      Idx    E Section Name        Object

    0x08000000   0x08000000   0x00000130   Data   RO            3    RESET               startup_stm32f10x_hd.o
    0x08000130   0x08000130   0x00000000   Code   RO         4137  * .ARM.Collect$$$$00000000  mc_w.l(entry.o)
    0x08000130   0x08000130   0x00000004   Code   RO         4411    .ARM.Collect$$$$00000001  mc_w.l(entry2.o)
    0x08000134   0x08000134   0x00000004   Code   RO         4414    .ARM.Collect$$$$00000004  mc_w.l(entry5.o)
    0x08000138   0x08000138   0x00000000   Code   RO         4416    .ARM.Collect$$$$00000008  mc_w.l(entry7b.o)
    0x08000138   0x08000138   0x00000000   Code   RO         4418    .ARM.Collect$$$$0000000A  mc_w.l(entry8b.o)
    0x08000138   0x08000138   0x00000008   Code   RO         4419    .ARM.Collect$$$$0000000B  mc_w.l(entry9a.o)
    0x08000140   0x08000140   0x00000000   Code   RO         4421    .ARM.Collect$$$$0000000D  mc_w.l(entry10a.o)
    0x08000140   0x08000140   0x00000000   Code   RO         4423    .ARM.Collect$$$$0000000F  mc_w.l(entry11a.o)
    0x08000140   0x08000140   0x00000004   Code   RO         4412    .ARM.Collect$$$$00002712  mc_w.l(entry2.o)
    0x08000144   0x08000144   0x00000024   Code   RO            4    .text               startup_stm32f10x_hd.o
    0x08000168   0x08000168   0x00000024   Code   RO         4140    .text               mc_w.l(memseta.o)
    0x0800018c   0x0800018c   0x0000001c   Code   RO         4142    .text               mc_w.l(strcmp.o)
    0x080001a8   0x080001a8   0x00000062   Code   RO         4428    .text               mc_w.l(uldiv.o)
    0x0800020a   0x0800020a   0x00000020   Code   RO         4430    .text               mc_w.l(llushr.o)
    0x0800022a   0x0800022a   0x00000002   PAD
    0x0800022c   0x0800022c   0x00000024   Code   RO         4443    .text               mc_w.l(init.o)
    0x08000250   0x08000250   0x0000001e   Code   RO         4445    .text               mc_w.l(llshl.o)
    0x0800026e   0x0800026e   0x0000002e   Code   RO         4079    i.AT24CXX_Check     24cxx.o
    0x0800029c   0x0800029c   0x00000008   Code   RO         4080    i.AT24CXX_Init      24cxx.o
    0x080002a4   0x080002a4   0x00000022   Code   RO         4081    i.AT24CXX_Read      24cxx.o
    0x080002c6   0x080002c6   0x00000058   Code   RO         4083    i.AT24CXX_ReadOneByte  24cxx.o
    0x0800031e   0x0800031e   0x00000024   Code   RO         4084    i.AT24CXX_Write     24cxx.o
    0x08000342   0x08000342   0x00000050   Code   RO         4086    i.AT24CXX_WriteOneByte  24cxx.o
    0x08000392   0x08000392   0x00000002   PAD
    0x08000394   0x08000394   0x00000068   Code   RO         3243    i.ATask             system.o
    0x080003fc   0x080003fc   0x00000010   Code   RO          401    i.BKP_DeInit        stm32f10x_bkp.o
    0x0800040c   0x0800040c   0x0000001c   Code   RO          406    i.BKP_ReadBackupRegister  stm32f10x_bkp.o
    0x08000428   0x08000428   0x0000001c   Code   RO          410    i.BKP_WriteBackupRegister  stm32f10x_bkp.o
    0x08000444   0x08000444   0x000001d4   Code   RO         3244    i.BTask             system.o
    0x08000618   0x08000618   0x0000002c   Code   RO         3367    i.BeepGpioInit      gpio.o
    0x08000644   0x08000644   0x00000014   Code   RO         3368    i.BeepOff           gpio.o
    0x08000658   0x08000658   0x00000014   Code   RO         3369    i.BeepOn            gpio.o
    0x0800066c   0x0800066c   0x00000008   Code   RO         3245    i.BtnTask           system.o
    0x08000674   0x08000674   0x00000004   Code   RO         3186    i.BusFault_Handler  stm32f10x_it.o
    0x08000678   0x08000678   0x0000013c   Code   RO         3246    i.CTask             system.o
    0x080007b4   0x080007b4   0x0000000c   Code   RO         3247    i.CpuInit           system.o
    0x080007c0   0x080007c0   0x00000064   Code   RO         4033    i.DHT11_Check       dht11.o
    0x08000824   0x08000824   0x00000040   Code   RO         4034    i.DHT11_Init        dht11.o
    0x08000864   0x08000864   0x0000004c   Code   RO         4035    i.DHT11_Read_Bit    dht11.o
    0x080008b0   0x080008b0   0x0000001e   Code   RO         4036    i.DHT11_Read_Byte   dht11.o
    0x080008ce   0x080008ce   0x00000058   Code   RO         4037    i.DHT11_Read_Data   dht11.o
    0x08000926   0x08000926   0x00000002   PAD
    0x08000928   0x08000928   0x00000040   Code   RO         4038    i.DHT11_Rst         dht11.o
    0x08000968   0x08000968   0x00000002   Code   RO         3187    i.DebugMon_Handler  stm32f10x_it.o
    0x0800096a   0x0800096a   0x00000002   PAD
    0x0800096c   0x0800096c   0x00000028   Code   RO         3513    i.EXTI0_IRQHandler  exti.o
    0x08000994   0x08000994   0x00000028   Code   RO         3514    i.EXTI3_IRQHandler  exti.o
    0x080009bc   0x080009bc   0x00000028   Code   RO         3515    i.EXTI4_IRQHandler  exti.o
    0x080009e4   0x080009e4   0x0000000c   Code   RO          939    i.EXTI_ClearITPendingBit  stm32f10x_exti.o
    0x080009f0   0x080009f0   0x00000148   Code   RO         3982    i.FIRST_SHOW        btn_menu.o
    0x08000b38   0x08000b38   0x00000034   Code   RO         1177    i.FSMC_NORSRAMCmd   stm32f10x_fsmc.o
    0x08000b6c   0x08000b6c   0x000000e6   Code   RO         1179    i.FSMC_NORSRAMInit  stm32f10x_fsmc.o
    0x08000c52   0x08000c52   0x00000116   Code   RO         1292    i.GPIO_Init         stm32f10x_gpio.o
    0x08000d68   0x08000d68   0x00000012   Code   RO         1296    i.GPIO_ReadInputDataBit  stm32f10x_gpio.o
    0x08000d7a   0x08000d7a   0x00000004   Code   RO         1299    i.GPIO_ResetBits    stm32f10x_gpio.o
    0x08000d7e   0x08000d7e   0x00000004   Code   RO         1300    i.GPIO_SetBits      stm32f10x_gpio.o
    0x08000d82   0x08000d82   0x00000008   Code   RO         3370    i.GpioToggle        gpio.o
    0x08000d8a   0x08000d8a   0x00000004   Code   RO         3188    i.HardFault_Handler  stm32f10x_it.o
    0x08000d8e   0x08000d8e   0x00000002   PAD
    0x08000d90   0x08000d90   0x00000050   Code   RO         3664    i.IIC_Ack           myiic.o
    0x08000de0   0x08000de0   0x00000034   Code   RO         3665    i.IIC_Init          myiic.o
    0x08000e14   0x08000e14   0x00000050   Code   RO         3666    i.IIC_NAck          myiic.o
    0x08000e64   0x08000e64   0x00000070   Code   RO         3667    i.IIC_Read_Byte     myiic.o
    0x08000ed4   0x08000ed4   0x00000068   Code   RO         3668    i.IIC_Send_Byte     myiic.o
    0x08000f3c   0x08000f3c   0x0000004c   Code   RO         3669    i.IIC_Start         myiic.o
    0x08000f88   0x08000f88   0x0000004c   Code   RO         3670    i.IIC_Stop          myiic.o
    0x08000fd4   0x08000fd4   0x00000064   Code   RO         3671    i.IIC_Wait_Ack      myiic.o
    0x08001038   0x08001038   0x0000003a   Code   RO         3599    i.Is_Leap_Year      rtc.o
    0x08001072   0x08001072   0x00000002   PAD
    0x08001074   0x08001074   0x0000003c   Code   RO         3371    i.KEY_Init          gpio.o
    0x080010b0   0x080010b0   0x0000006c   Code   RO         3723    i.LCD_Clear         lcd.o
    0x0800111c   0x0800111c   0x000001c0   Code   RO         3727    i.LCD_Display_Dir   lcd.o
    0x080012dc   0x080012dc   0x000000b0   Code   RO         3728    i.LCD_DrawLine      lcd.o
    0x0800138c   0x0800138c   0x00000024   Code   RO         3729    i.LCD_DrawPoint     lcd.o
    0x080013b0   0x080013b0   0x0000017c   Code   RO         3732    i.LCD_Fast_DrawPoint  lcd.o
    0x0800152c   0x0800152c   0x000000bc   Code   RO         3733    i.LCD_Fill          lcd.o
    0x080015e8   0x080015e8   0x00000530   Code   RO         3734    i.LCD_Init          lcd.o
    0x08001b18   0x08001b18   0x00000016   Code   RO         3735    i.LCD_Pow           lcd.o
    0x08001b2e   0x08001b2e   0x00000002   PAD
    0x08001b30   0x08001b30   0x00000014   Code   RO         3736    i.LCD_RD_DATA       lcd.o
    0x08001b44   0x08001b44   0x00000010   Code   RO         3738    i.LCD_ReadReg       lcd.o
    0x08001b54   0x08001b54   0x000002ec   Code   RO         3740    i.LCD_Scan_Dir      lcd.o
    0x08001e40   0x08001e40   0x000001a8   Code   RO         3741    i.LCD_SetCursor     lcd.o
    0x08001fe8   0x08001fe8   0x00000128   Code   RO         3743    i.LCD_ShowChar      lcd.o
    0x08002110   0x08002110   0x00000094   Code   RO         3744    i.LCD_ShowNum       lcd.o
    0x080021a4   0x080021a4   0x00000066   Code   RO         3745    i.LCD_ShowString    lcd.o
    0x0800220a   0x0800220a   0x00000002   PAD
    0x0800220c   0x0800220c   0x0000000c   Code   RO         3747    i.LCD_WR_DATA       lcd.o
    0x08002218   0x08002218   0x0000000c   Code   RO         3748    i.LCD_WR_REG        lcd.o
    0x08002224   0x08002224   0x00000014   Code   RO         3750    i.LCD_WriteRAM_Prepare  lcd.o
    0x08002238   0x08002238   0x00000010   Code   RO         3751    i.LCD_WriteReg      lcd.o
    0x08002248   0x08002248   0x0000006c   Code   RO         3372    i.LedControl        gpio.o
    0x080022b4   0x080022b4   0x00000038   Code   RO         3373    i.LedGpioInit       gpio.o
    0x080022ec   0x080022ec   0x00000004   Code   RO         3189    i.MemManage_Handler  stm32f10x_it.o
    0x080022f0   0x080022f0   0x00000002   Code   RO         3190    i.NMI_Handler       stm32f10x_it.o
    0x080022f2   0x080022f2   0x00000002   PAD
    0x080022f4   0x080022f4   0x00000070   Code   RO          137    i.NVIC_Init         misc.o
    0x08002364   0x08002364   0x00000014   Code   RO          138    i.NVIC_PriorityGroupConfig  misc.o
    0x08002378   0x08002378   0x0000000c   Code   RO         1646    i.PWR_BackupAccessCmd  stm32f10x_pwr.o
    0x08002384   0x08002384   0x00000002   Code   RO         3191    i.PendSV_Handler    stm32f10x_it.o
    0x08002386   0x08002386   0x00000046   Code   RO         3547    i.QueueInPut        queue.o
    0x080023cc   0x080023cc   0x0000000e   Code   RO         3548    i.QueueInit         queue.o
    0x080023da   0x080023da   0x00000032   Code   RO         3549    i.QueueOutPut       queue.o
    0x0800240c   0x0800240c   0x00000020   Code   RO         1707    i.RCC_AHBPeriphClockCmd  stm32f10x_rcc.o
    0x0800242c   0x0800242c   0x00000020   Code   RO         1708    i.RCC_APB1PeriphClockCmd  stm32f10x_rcc.o
    0x0800244c   0x0800244c   0x00000020   Code   RO         1710    i.RCC_APB2PeriphClockCmd  stm32f10x_rcc.o
    0x0800246c   0x0800246c   0x0000000c   Code   RO         1713    i.RCC_BackupResetCmd  stm32f10x_rcc.o
    0x08002478   0x08002478   0x000000d4   Code   RO         1718    i.RCC_GetClocksFreq  stm32f10x_rcc.o
    0x0800254c   0x0800254c   0x0000003c   Code   RO         1719    i.RCC_GetFlagStatus  stm32f10x_rcc.o
    0x08002588   0x08002588   0x00000034   Code   RO         1726    i.RCC_LSEConfig     stm32f10x_rcc.o
    0x080025bc   0x080025bc   0x0000000c   Code   RO         1733    i.RCC_RTCCLKCmd     stm32f10x_rcc.o
    0x080025c8   0x080025c8   0x00000010   Code   RO         1734    i.RCC_RTCCLKConfig  stm32f10x_rcc.o
    0x080025d8   0x080025d8   0x00000010   Code   RO         1907    i.RTC_ClearITPendingBit  stm32f10x_rtc.o
    0x080025e8   0x080025e8   0x00000014   Code   RO         1908    i.RTC_EnterConfigMode  stm32f10x_rtc.o
    0x080025fc   0x080025fc   0x00000014   Code   RO         1909    i.RTC_ExitConfigMode  stm32f10x_rtc.o
    0x08002610   0x08002610   0x00000100   Code   RO         3601    i.RTC_Get           rtc.o
    0x08002710   0x08002710   0x00000014   Code   RO         1910    i.RTC_GetCounter    stm32f10x_rtc.o
    0x08002724   0x08002724   0x00000024   Code   RO         1913    i.RTC_GetITStatus   stm32f10x_rtc.o
    0x08002748   0x08002748   0x00000078   Code   RO         3602    i.RTC_Get_Week      rtc.o
    0x080027c0   0x080027c0   0x00000070   Code   RO         3603    i.RTC_IRQHandler    rtc.o
    0x08002830   0x08002830   0x00000020   Code   RO         1914    i.RTC_ITConfig      stm32f10x_rtc.o
    0x08002850   0x08002850   0x000000c0   Code   RO         3604    i.RTC_Init          rtc.o
    0x08002910   0x08002910   0x00000020   Code   RO         3605    i.RTC_NVIC_Config   rtc.o
    0x08002930   0x08002930   0x000000c8   Code   RO         3606    i.RTC_Set           rtc.o
    0x080029f8   0x080029f8   0x0000001c   Code   RO         1916    i.RTC_SetCounter    stm32f10x_rtc.o
    0x08002a14   0x08002a14   0x00000020   Code   RO         1917    i.RTC_SetPrescaler  stm32f10x_rtc.o
    0x08002a34   0x08002a34   0x00000014   Code   RO         1918    i.RTC_WaitForLastTask  stm32f10x_rtc.o
    0x08002a48   0x08002a48   0x00000024   Code   RO         1919    i.RTC_WaitForSynchro  stm32f10x_rtc.o
    0x08002a6c   0x08002a6c   0x00000002   Code   RO         3192    i.SVC_Handler       stm32f10x_it.o
    0x08002a6e   0x08002a6e   0x00000008   Code   RO           24    i.SetSysClock       system_stm32f10x.o
    0x08002a76   0x08002a76   0x00000002   PAD
    0x08002a78   0x08002a78   0x000000e0   Code   RO           25    i.SetSysClockTo72   system_stm32f10x.o
    0x08002b58   0x08002b58   0x000002bc   Code   RO         3248    i.SysInit           system.o
    0x08002e14   0x08002e14   0x0000001c   Code   RO         3317    i.SysTickDelayMs    systick.o
    0x08002e30   0x08002e30   0x00000026   Code   RO         3318    i.SysTickDelayUs    systick.o
    0x08002e56   0x08002e56   0x00000002   PAD
    0x08002e58   0x08002e58   0x00000088   Code   RO         3319    i.SysTickInit       systick.o
    0x08002ee0   0x08002ee0   0x0000006c   Code   RO         3320    i.SysTick_Handler   systick.o
    0x08002f4c   0x08002f4c   0x00000060   Code   RO           27    i.SystemInit        system_stm32f10x.o
    0x08002fac   0x08002fac   0x00000038   Code   RO         3249    i.TaskInit          system.o
    0x08002fe4   0x08002fe4   0x00000038   Code   RO         3250    i.TaskRun           system.o
    0x0800301c   0x0800301c   0x0000007c   Code   RO         3437    i.USART1_IRQHandler  usart.o
    0x08003098   0x08003098   0x00000030   Code   RO         3438    i.USART2_IRQHandler  usart.o
    0x080030c8   0x080030c8   0x00000030   Code   RO         3439    i.USART3_IRQHandler  usart.o
    0x080030f8   0x080030f8   0x00000012   Code   RO         2874    i.USART_ClearFlag   stm32f10x_usart.o
    0x0800310a   0x0800310a   0x00000018   Code   RO         2878    i.USART_Cmd         stm32f10x_usart.o
    0x08003122   0x08003122   0x0000001a   Code   RO         2881    i.USART_GetFlagStatus  stm32f10x_usart.o
    0x0800313c   0x0800313c   0x00000054   Code   RO         2882    i.USART_GetITStatus  stm32f10x_usart.o
    0x08003190   0x08003190   0x0000004a   Code   RO         2884    i.USART_ITConfig    stm32f10x_usart.o
    0x080031da   0x080031da   0x00000002   PAD
    0x080031dc   0x080031dc   0x000000d8   Code   RO         2885    i.USART_Init        stm32f10x_usart.o
    0x080032b4   0x080032b4   0x0000000a   Code   RO         2892    i.USART_ReceiveData  stm32f10x_usart.o
    0x080032be   0x080032be   0x00000008   Code   RO         2895    i.USART_SendData    stm32f10x_usart.o
    0x080032c6   0x080032c6   0x00000004   Code   RO         3193    i.UsageFault_Handler  stm32f10x_it.o
    0x080032ca   0x080032ca   0x00000008   Code   RO         3251    i.Usart1ControlBeepTask  system.o
    0x080032d2   0x080032d2   0x00000002   PAD
    0x080032d4   0x080032d4   0x000000a4   Code   RO         3440    i.Usart1_RecProcess  usart.o
    0x08003378   0x08003378   0x00000190   Code   RO         3443    i.UsartInit         usart.o
    0x08003508   0x08003508   0x00000020   Code   RO         4277    i.__0printf$5       mc_w.l(printf5.o)
    0x08003528   0x08003528   0x00000028   Code   RO         4279    i.__0sprintf$5      mc_w.l(printf5.o)
    0x08003550   0x08003550   0x0000000e   Code   RO         4451    i.__scatterload_copy  mc_w.l(handlers.o)
    0x0800355e   0x0800355e   0x00000002   Code   RO         4452    i.__scatterload_null  mc_w.l(handlers.o)
    0x08003560   0x08003560   0x0000000e   Code   RO         4453    i.__scatterload_zeroinit  mc_w.l(handlers.o)
    0x0800356e   0x0800356e   0x00000002   PAD
    0x08003570   0x08003570   0x000002c0   Code   RO         4284    i._printf_core      mc_w.l(printf5.o)
    0x08003830   0x08003830   0x0000000a   Code   RO         4286    i._sputc            mc_w.l(printf5.o)
    0x0800383a   0x0800383a   0x0000000a   Code   RO         3929    i.button_attach     multi_button.o
    0x08003844   0x08003844   0x0000012c   Code   RO         3983    i.button_callback1  btn_menu.o
    0x08003970   0x08003970   0x0000010c   Code   RO         3984    i.button_callback2  btn_menu.o
    0x08003a7c   0x08003a7c   0x000002d0   Code   RO         3985    i.button_callback3  btn_menu.o
    0x08003d4c   0x08003d4c   0x0000022a   Code   RO         3930    i.button_handler    multi_button.o
    0x08003f76   0x08003f76   0x00000032   Code   RO         3931    i.button_init       multi_button.o
    0x08003fa8   0x08003fa8   0x0000002c   Code   RO         3932    i.button_start      multi_button.o
    0x08003fd4   0x08003fd4   0x0000001c   Code   RO         3934    i.button_ticks      multi_button.o
    0x08003ff0   0x08003ff0   0x00000024   Code   RO         3446    i.fputc             usart.o
    0x08004014   0x08004014   0x00000008   Code   RO         3935    i.get_button_event  multi_button.o
    0x0800401c   0x0800401c   0x0000000c   Code   RO         3108    i.main              main.o
    0x08004028   0x08004028   0x00000010   Code   RO         3374    i.read_button1_GPIO  gpio.o
    0x08004038   0x08004038   0x00000010   Code   RO         3375    i.read_button2_GPIO  gpio.o
    0x08004048   0x08004048   0x00000010   Code   RO         3376    i.read_button3_GPIO  gpio.o
    0x08004058   0x08004058   0x0000013c   Code   RO         3986    i.time_ADD          btn_menu.o
    0x08004194   0x08004194   0x0000013c   Code   RO         3987    i.time_Sub          btn_menu.o
    0x080042d0   0x080042d0   0x00000018   Data   RO         3608    .constdata          rtc.o
    0x080042e8   0x080042e8   0x000017c0   Data   RO         3754    .constdata          lcd.o
    0x08005aa8   0x08005aa8   0x00000020   Data   RO         4449    Region$$Table       anon$$obj.o


    Execution Region RW_IRAM1 (Exec base: 0x20000000, Load base: 0x08005ac8, Size: 0x00000a40, Max: 0x00010000, ABSOLUTE)

    Exec Addr    Load Addr    Size         Type   Attr      Idx    E Section Name        Object

    0x20000000   0x08005ac8   0x00000014   Data   RW         1738    .data               stm32f10x_rcc.o
    0x20000014   0x08005adc   0x0000000c   Data   RW         3109    .data               main.o
    0x20000020   0x08005ae8   0x00000031   Data   RW         3253    .data               system.o
    0x20000051   0x08005b19   0x00000003   PAD
    0x20000054   0x08005b1c   0x00000004   Data   RW         3322    .data               systick.o
    0x20000058   0x08005b20   0x00000004   Data   RW         3448    .data               usart.o
    0x2000005c   0x08005b24   0x00000002   Data   RW         3609    .data               rtc.o
    0x2000005e   0x08005b26   0x00000004   Data   RW         3755    .data               lcd.o
    0x20000062   0x08005b2a   0x00000002   PAD
    0x20000064   0x08005b2c   0x00000004   Data   RW         3936    .data               multi_button.o
    0x20000068   0x08005b30   0x00000016   Data   RW         3989    .data               btn_menu.o
    0x2000007e   0x08005b46   0x00000002   PAD
    0x20000080   0x08005b48   0x00000004   Data   RW         4425    .data               mc_w.l(stdout.o)
    0x20000084        -       0x000000b4   Zero   RW         3252    .bss                system.o
    0x20000138        -       0x00000064   Zero   RW         3321    .bss                systick.o
    0x2000019c        -       0x00000428   Zero   RW         3447    .bss                usart.o
    0x200005c4        -       0x0000000a   Zero   RW         3607    .bss                rtc.o
    0x200005ce        -       0x0000000e   Zero   RW         3753    .bss                lcd.o
    0x200005dc        -       0x00000064   Zero   RW         3988    .bss                btn_menu.o
    0x20000640        -       0x00000400   Zero   RW            1    STACK               startup_stm32f10x_hd.o


==============================================================================

Image component sizes


      Code (inc. data)   RO Data    RW Data    ZI Data      Debug   Object Name

       292          0          0          0          0       3963   24cxx.o
      2248        674          0         22        100       4964   btn_menu.o
         0          0          0          0          0       4508   core_cm3.o
       422         32          0          0          0       3944   dht11.o
       120         40          0          0          0       1401   exti.o
       364         56          0          0          0       5201   gpio.o
      4500        172       6080          4         14      16558   lcd.o
        12          0          0         12          0       2964   main.o
       132         22          0          0          0       1651   misc.o
       694         18          0          4          0       3920   multi_button.o
       680        102          0          0          0       4166   myiic.o
       134          0          0          0          0       2231   queue.o
       970         72         24          2         10       5658   rtc.o
        36          8        304          0       1024        864   startup_stm32f10x_hd.o
        72         10          0          0          0       2808   stm32f10x_bkp.o
        12          6          0          0          0        521   stm32f10x_exti.o
       282          6          0          0          0       1933   stm32f10x_fsmc.o
       304          0          0          0          0       3780   stm32f10x_gpio.o
        24          0          0          0          0       3544   stm32f10x_it.o
        12          6          0          0          0        510   stm32f10x_pwr.o
       460         64          0         20          0       7834   stm32f10x_rcc.o
       260         48          0          0          0       5140   stm32f10x_rtc.o
       460          6          0          0          0       6847   stm32f10x_usart.o
      1728        546          0         49        180       6919   system.o
       328         28          0          0          0     238041   system_stm32f10x.o
       310         40          0          4        100      18270   systick.o
       820        114          0          4       1064       5943   usart.o

    ----------------------------------------------------------------------
     15700       2070       6440        128       2492     364083   Object Totals
         0          0         32          0          0          0   (incl. Generated)
        24          0          0          7          0          0   (incl. Padding)

    ----------------------------------------------------------------------

      Code (inc. data)   RO Data    RW Data    ZI Data      Debug   Library Member Name

         0          0          0          0          0          0   entry.o
         0          0          0          0          0          0   entry10a.o
         0          0          0          0          0          0   entry11a.o
         8          4          0          0          0          0   entry2.o
         4          0          0          0          0          0   entry5.o
         0          0          0          0          0          0   entry7b.o
         0          0          0          0          0          0   entry8b.o
         8          4          0          0          0          0   entry9a.o
        30          0          0          0          0          0   handlers.o
        36          8          0          0          0         68   init.o
        30          0          0          0          0         68   llshl.o
        32          0          0          0          0         68   llushr.o
        36          0          0          0          0        108   memseta.o
       786         62          0          0          0        336   printf5.o
         0          0          0          4          0          0   stdout.o
        28          0          0          0          0         76   strcmp.o
        98          0          0          0          0         92   uldiv.o

    ----------------------------------------------------------------------
      1100         78          0          4          0        816   Library Totals
         4          0          0          0          0          0   (incl. Padding)

    ----------------------------------------------------------------------

      Code (inc. data)   RO Data    RW Data    ZI Data      Debug   Library Name

      1096         78          0          4          0        816   mc_w.l

    ----------------------------------------------------------------------
      1100         78          0          4          0        816   Library Totals

    ----------------------------------------------------------------------

==============================================================================


      Code (inc. data)   RO Data    RW Data    ZI Data      Debug   

     16800       2148       6440        132       2492     357459   Grand Totals
     16800       2148       6440        132       2492     357459   ELF Image Totals
     16800       2148       6440        132          0          0   ROM Totals

==============================================================================

    Total RO  Size (Code + RO Data)                23240 (  22.70kB)
    Total RW  Size (RW Data + ZI Data)              2624 (   2.56kB)
    Total ROM Size (Code + RO Data + RW Data)      23372 (  22.82kB)

==============================================================================

