:020000040800F2
:10000000400A002045010008F12200088B0D00087D
:10001000ED22000875060008C73200080000000045
:100020000000000000000000000000006D2A000831
:10003000690900080000000085230008E12E00087F
:100040005F0100085F0100085F010008C127000888
:100050005F0100085F0100086D0900085F010008EA
:100060005F01000895090008BD0900085F0100084C
:100070005F0100085F0100085F0100085F010008E0
:100080005F0100085F0100085F0100085F010008D0
:100090005F0100085F0100085F0100085F010008C0
:1000A0005F0100085F0100085F0100085F010008B0
:1000B0005F0100085F0100085F0100085F010008A0
:1000C0005F0100085F0100085F0100085F01000890
:1000D0005F0100081D30000899300008C930000891
:1000E0005F0100085F0100085F0100085F01000870
:1000F0005F0100085F0100085F0100085F01000860
:100100005F0100085F0100085F0100085F0100084F
:100110005F0100085F0100085F0100085F0100083F
:100120005F0100085F0100085F0100085F0100082F
:10013000DFF80CD000F07AF8004800471D400008B6
:10014000400A00200648804706480047FEE7FEE7D1
:10015000FEE7FEE7FEE7FEE7FEE7FEE7FEE7FEE777
:100160004D2F000831010008D2B201E000F8012B48
:10017000491EFBD270470022F6E710B513460A4627
:1001800004461946FFF7F0FF204610BD10B50022C7
:1001900000E0521C835C8C5CA34201D1002BF8D19F
:1001A000D8B2E1B2401A10BD2DE9F05F054600203B
:1001B00092469B4688460646814640241BE02846D8
:1001C00041464746224600F020F853465A46C01A98
:1001D000914110D311461846224600F039F82D1AE5
:1001E00067EB01084F4622460120002100F030F85D
:1001F00017EB00094E41201EA4F10104DFDC484644
:1002000031462A464346BDE8F09F202A04DB203AC7
:1002100021FA02F00021704721FA02F3D040C2F126
:10022000200291400843194670470000064C074DD4
:1002300006E0E06840F0010394E8070098471034B6
:10024000AC42F6D3FFF778FFA85A0008C85A000856
:10025000202A04DB203A00FA02F100207047914086
:10026000C2F1200320FA03F319439040704710B500
:10027000FF2000F028F80446552C01D1002010BDC5
:100280005521FF2000F05DF8FF2000F01CF8044627
:10029000552C01D10020F2E70120F0E710B500F065
:1002A0009FFD10BD70B506460C46154608E0304669
:1002B000721C96B200F007F804F8010B681E85B2B4
:1002C000002DF4D170BD70B50446002600F036FE56
:1002D0002546E11704EB11610912A02202EB41014E
:1002E000C8B200F0F7FD00F075FEE11704EB1161F4
:1002F0000912A4EB0121C8B200F0ECFD00F06AFE87
:1003000000F01CFEA12000F0E5FD00F063FE0020DF
:1003100000F0A8FD064600F037FE304670BD70B50F
:1003200005460C46164606E02178284600F009F8F6
:10033000681C85B2641C301EA6F101018EB2F3D197
:1003400070BD70B504460E4600F0F8FD2546E11775
:1003500004EB11610912A02202EB4101C8B200F0C6
:10036000B9FD00F037FEE11704EB11610912A4EBAF
:100370000121C8B200F0AEFD00F02CFE304600F0C6
:10038000A9FD00F027FE00F0FFFD0A2002F042FD6B
:1003900070BD00001CB512A010210B46C822CDE98B
:1003A00000104FF49671322001F0FCFE11490978DB
:1003B000491CC9B20F4A1170084601EBD0714910AF
:1003C000A0EB410139B920210B4800F0D8FC0020F6
:1003D0000849087003E02021074800F0CEFC1CBD4E
:1003E000506F77657220627920526220537464697D
:1003F0006F00000050000020000C014010B50120EB
:1004000002F034F8002002F031F810BD08B50146C2
:100410000020009003480090009808440090009845
:10042000008808BD006C004008B500220092044A14
:100430000092009A02440092009A116008BD0000E8
:10044000006C00401CB557488078574909788842AD
:100450007ED05648007801287AD152488078524997
:1004600008705348002101604E48C07900904D4803
:10047000837982884FA14E4803F056F84C481821E2
:100480001023C822CDE9001012210A2001F08AFEB3
:100490004448007A072852D2DFE800F0040F1A25FA
:1004A000303B460046A018211023C822CDE9001099
:1004B0001221942001F076FE41E044A0182110237F
:1004C000C822CDE900101221942001F06BFE36E025
:1004D00041A018211023C822CDE900101221942038
:1004E00001F060FE2BE03FA018211023C822CDE9C7
:1004F00000101221942001F055FE20E03CA01821AC
:100500001023C822CDE900101221942001F04AFEE8
:1005100015E03AA018211023C822CDE900101221BD
:10052000942001F03FFE0AE037A018211023C822D2
:10053000CDE900101221942001F034FE00BF00BF6D
:10054000182000901748027802233A21442000E046
:1005500027E001F0DDFD18200090124842780223C8
:100560003A21662001F0D4FD182000900D488278D1
:1005700002233A21882001F0CBFD26A018210B464A
:100580000822CDE900103A215A2001F00BFE21A0EB
:1005900018210B460822CDE900103A217C2001F0F9
:1005A00001FE1CBDC40500204C0000206800002096
:1005B000FC00002025642D25642D2564000000002A
:1005C00053756E6461792020200000004D6F6E64C9
:1005D00061792020200000005475657364617920E2
:1005E000200000005765646E657364617900000047
:1005F0005468757273646179200000004672696402
:100600006179202020000000536174757264617963
:10061000200000003A00000008B50121082001F088
:1006200015FF10208DF803000001ADF80000032035
:100630008DF802006946024800F00BFB08BD00007F
:10064000000C014010B54FF48071024800F095FB9A
:1006500010BD0000000C014010B54FF4807102483D
:1006600000F08DFB10BD0000000C014010B503F040
:10067000B1FC10BD00BFFEE71CB53849384800F09A
:1006800026F938480078012866D13548007890B9B5
:100690004FF478403449088034A010210B46C8221A
:1006A000CDE9001055211E2001F07CFD4FF4FC60C7
:1006B0002D49088050E04FF4FC602B4908802FA0A2
:1006C00010210B46C822CDE9001055211E2001F053
:1006D00069FD0020244908802D48002101601F4841
:1006E00003781F4802782BA1294802F01DFF2848F3
:1006F00010210B46C822CDE900106921192001F014
:1007000051FD174800780F2803DB154800781E2894
:1007100006DD27480088401C00B22549088005E016
:1007200023480088401E00B2214908802048B0F9C3
:100730000000002803DC00201D4908800CE01C4854
:10074000B0F90000052805DBFFF786FF05201849F2
:10075000088001E0FFF776FF1CBD000021000020AB
:1007600020000020680000205E0000204448543132
:100770003120434845434B202E2E2E00444854310F
:10078000312052554E204E4F524D414C000000003A
:100790001001002054656D7061747572653A2564AE
:1007A0002048756D69646974793A25640000000019
:1007B0004E00002010B54FF4A06001F0D3FD10BD35
:1007C00010B500241548406820F470401349486073
:1007D0000846406840F40040486004E0601CC4B231
:1007E000012002F025FB0E48006808B1642CF5DBFF
:1007F000642C01DB012010BD002404E0601CC4B2A5
:10080000012002F015FB0648006808B9642CF5DBEE
:10081000642C01DB0120EEE70020ECE70020014022
:100820002C01244208B50121080201F00FFE4FF40B
:100830000060ADF8000010208DF8030003208DF853
:1008400002006946064800F004FA4FF400610448CB
:1008500000F095FA00F068F8FFF7B2FF08BD00005D
:100860000020014010B5002404E0601CC4B2012047
:1008700002F0DEFA0D48006808B1642CF5DB0024B4
:1008800004E0601CC4B2012002F0D2FA07480068FC
:1008900008B9642CF5DB282002F0CAFA0348006886
:1008A00008B1012010BD0020FCE700002C0124420B
:1008B00070B50024002506E06006040EFFF7D2FFA5
:1008C0000443681CC5B2082DF6DB204670BD7CB51C
:1008D00005460E4600F028F8FFF772FFF8B900242D
:1008E00005E0FFF7E5FF0DF80400601CC4B2052C1D
:1008F000F7DB9DF800009DF8011008449DF80210F8
:1009000008449DF8031008449DF80410884208D15B
:100910009DF8000030709DF80200287001E0012071
:100920007CBD0020FCE7000010B50C48406820F4B6
:1009300070400A4948600846406840F440504860AA
:10094000002007490860142002F064FA01200549DC
:10095000C1F8AC011E2002F06BFA10BD002001406E
:10096000AC012442000024427047000010B5012170
:10097000054800F0F9F9012802D104A002F0C4FDF5
:10098000012000F02FF810BD00080140574B5F55C3
:10099000500D0A0010B50821054800F0E5F910B91E
:1009A00004A002F0B1FD082000F01CF810BD00000A
:1009B000001801404B4559310D0A000010B51021B7
:1009C000054800F0D1F910B904A002F09DFD1020F7
:1009D00000F008F810BD0000001801404B455930E8
:1009E0000D0A00000149086070470000140401402E
:1009F0001CB54FF6FF7000F05BFB4FF61F0041493E
:100A0000088041A018210B46C822CDE900103021F2
:100A1000282001F0C7FB00203A49088018200090E8
:100A20003D48828804234E21362001F071FB1820B6
:100A300000903948827902234E21702001F068FB32
:100A4000182000903448C27902234E21922001F0F0
:100A50005FFB32A018210B460822CDE900104E2181
:100A6000642001F09FFB2DA018210B460822CDE940
:100A700000104E21862001F095FB274880882849E8
:100A8000088025488079274908802348C07926496D
:100A90000880182000902048027802237621442004
:100AA00001F036FB182000901B4842780223762183
:100AB000662001F02DFB1820009017488278022351
:100AC0007621882001F024FB18A018210B4608226B
:100AD000CDE9001076215A2001F064FB13A0182103
:100AE0000B460822CDE9001076217C2001F05AFB4C
:100AF000094800780E490880074840780D49088069
:100B00001CBD00005E0000205345542054494D4553
:100B1000204D454E55000000C40500202D0000006A
:100B20007200002074000020760000203A000000CF
:100B3000780000207A00002051B18200A2F1C0426A
:100B4000126842F001038200A2F1C042136009E082
:100B50008200A2F1C0421268034B1A408300A3F145
:100B6000C0431A6070470000FEFF0F00D0E9011279
:100B70001143C268114302691143426911438269FA
:100B80001143C2691143026A1143426A1143826AE6
:100B90001143C26A1143026B114302689200A2F131
:100BA000C0421160816808290BD101688900A1F158
:100BB000C041096841F0400201688900A1F1C041CB
:100BC0000A60416B0968426B526841EA0211426B4C
:100BD000926841EA0221426B928941EA0241426BEA
:100BE000128A41EA0251426B127D41EA0261426B74
:100BF000926911430268521C9200A2F1C042116036
:100C0000C16AB1F5804F1BD1816B0968826B526854
:100C100041EA0211826B926841EA0221826B128AD8
:100C200041EA0251826B127D41EA0261826B926954
:100C3000114302689200A2F1C042C2F8041107E019
:100C40006FF0704201688900A1F1C041C1F8042130
:100C500070472DE9F04102460025002600200023C0
:100C60000024002791F803C00CF00F0591F803C091
:100C70000CF0100CBCF1000F03D091F802C04CEA4C
:100C8000050591F800C0BCF1000F31D014680020B8
:100C90002BE04FF0010C0CFA00F3B1F800C00CEAA5
:100CA00003069E4220D183004FF00F0C0CFA03F78D
:100CB000BC4305FA03FC4CEA040491F803C0BCF100
:100CC000280F06D14FF0010C0CFA00FCC2F814C03A
:100CD0000AE091F803C0BCF1480F05D14FF0010CB8
:100CE0000CFA00FCC2F810C0401C0828D1D31460D4
:100CF000B1F800C0BCF1FF0F34DD546800202EE0D5
:100D000000F1080C4FF0010808FA0CF3B1F800C02C
:100D10000CEA03069E4221D183004FF00F0C0CFA1F
:100D200003F7BC4305FA03FC4CEA040491F803C042
:100D3000BCF1280F05D100F1080C08FA0CF8C2F834
:100D4000148091F803C0BCF1480F07D100F1080CE2
:100D50004FF0010808FA0CF8C2F81080401C08286F
:100D6000CED35460BDE8F0810246002093680B406A
:100D70000BB1012000E00020704741617047016124
:100D80007047C2684A40C260704700BFFEE700007B
:100D900010B500200F4908600F48006820F070402F
:100DA0000D4908600846006840F040500860002087
:100DB0000A49C1F89C01022002F03AF801200549D5
:100DC0000860022002F034F800200449C1F89801BC
:100DD00010BD000098812142000C0140008021429A
:100DE00008B50121082001F031FBC020ADF800005A
:100DF00010208DF8030003208DF802006946044896
:100E0000FFF727FFC0210248FFF7B9FF08BD000028
:100E1000000C014010B500200F4908600F48006821
:100E200020F070400D4908600846006840F04050CE
:100E3000086001200A49C1F89C01022001F0F8FF76
:100E4000012005490860022001F0F2FF002004495A
:100E5000C1F8980110BD000098812142000C0140AA
:100E60000080214270B5054600241748006820F034
:100E70007040154908600846006840F0004008606E
:100E8000002616E0002011490860022001F0D0FF82
:100E900001200F49C1F898016006040E0B487C3808
:100EA000006808B1601CC4B2012001F0C1FF701CD1
:100EB000C6B2082EE6DB15B9FFF7ACFF01E0FFF77D
:100EC00067FF204670BD0000000C01409881214260
:100ED0000080214270B504461548006820F070403B
:100EE000134908600846006840F040500860002040
:100EF00010490860002517E0E0090E49091D086047
:100F00006006040E022001F093FF01200A49C1F897
:100F10009801022001F08CFF0020064908600220A1
:100F200001F086FF681CC5B2082DE5DB70BD00002E
:100F3000000C0140988121420080214210B50F48E9
:100F4000006820F070400D4908600846006840F0D5
:100F50004050086001200A4908600A49C1F8980118
:100F6000042001F065FF002005490860042001F01D
:100F70005FFF00200349C1F8980110BD000C01403B
:100F80009C8121420080214210B50F48006820F06A
:100F900070400D4908600846006840F04050086005
:100FA00000200A4908600A49C1F89C01042001F0A8
:100FB0003FFF0120054908600549C1F89C01042054
:100FC00001F036FF10BD0000000C01409881214265
:100FD0000080214210B500241448006820F07040C1
:100FE000124908600846006840F00040086001208F
:100FF0000F49086001F01CFF01200E49C1F898015B
:1010000001F016FF07E0601CC4B2FA2C03DDFFF705
:10101000BBFF012010BD0648803800680028F2D1CF
:101020000349091F086000BFF4E70000000C0140FD
:101030009C812142008021420146CA1701EB927235
:101040009210A1EB820292B9642091FBF0F200FBB6
:10105000121050B94FF4C87091FBF0F200FB12105F
:1010600008B9012070470020FCE70120FAE70020C2
:10107000F8E7000008B50121442001F0E7F9182045
:10108000ADF8000048208DF8030069460648FFF7D8
:10109000E0FD0120ADF8000028208DF8030069462E
:1010A0000248FFF7D6FD08BD0018014000080140C6
:1010B00070B5044600261748058840884543154802
:1010C000808846F60401884216D1124880790128AA
:1010D00012D100200F4988712A2048812B20888155
:1010E0000021084600F0ACFE01200A4988712B203F
:1010F00048812A20888103E00021084600F0A0FEF4
:1011000001F090F8002602E003480480761CAE420D
:10111000FAD370BDCE0500200008006C10B504465F
:10112000002C66D16C498871F02008804FF4A070C3
:1011300048800846808849F2413188420BD0664891
:10114000808846F60401884205D06348808845F2CD
:10115000103188421AD12C205F4908812A20488109
:101160002B2088810846808846F60401884205D0F5
:101170005948808845F21031884206D14FF4A0705A
:10118000554908804FF4F0704880A1E052488088AB
:1011900045F21051884210D14FF430504E49088129
:1011A0004FF4285048814FF42C5088814FF4F07050
:1011B00008804FF4487048808AE04748808841F6AC
:1011C000631188420DD12C20434908812B2048818E
:1011D0002A2088814FF4F07008804FF448704880CE
:1011E00076E022203C490881202048812120888106
:1011F0006EE00120384988714FF4A0700880F0201B
:1012000048800846808849F24131884205D03248FA
:10121000808845F21031884207D12C202E49088160
:101220002A2048812B2088813FE02B48808846F681
:101230000401884207D12C20274908812B204881AE
:101240002A20888131E02448808845F21051884264
:1012500010D14FF43050204908814FF42850488174
:101260004FF42C5088814FF4487008804FF4F07090
:1012700048801AE01848808841F6631188420DD1F1
:101280002C20154908812A2048812B2088814FF481
:10129000487008804FF4F070488006E022200E4924
:1012A000088121204881202088810B48808846F6CB
:1012B0000401884205D00848808845F210318842F0
:1012C00006D14FF4F070044908804FF4A0704880B4
:1012D000002000F03FFC10BDCE0500202DE9FF4F9F
:1012E00084B081468A460020039002900698A0EBC5
:1012F00009050798A0EB0A06CDF80490CDF800A0E8
:10130000002D01DD012705E00DB9002702E04FF0B7
:10131000FF376D42002E02DD4FF0010806E016B9DE
:101320004FF0000802E04FF0FF387642B54201DD91
:101330002C4600E034464FF0000B21E0009A91B2B9
:10134000019A90B200F022F8039828440390029882
:10135000304402900398A04205DD0398001B0390DF
:101360000198384401900298A04205DD0298001BC4
:1013700002900098404400900BF101001FFA80FB9E
:10138000601C8345DADD08B0BDE8F08F30B5044657
:101390000D462946204600F053FD00F043FF024869
:1013A00000880249088030BD5E0000200008006C03
:1013B00030B503460C4615465A48808849F24131FB
:1013C000884205D05748808845F21031884214D1B0
:1013D0005449488900F020FF181200F017FFD8B2D6
:1013E00000F014FF4F49888900F016FF201200F02A
:1013F0000DFFE0B200F00AFF8CE04A48808845F219
:101400001051884220D14749488900F005FF181241
:1014100000F0FCFE43494989491C88B200F0FCFEFB
:10142000D8B200F0F3FE3F49888900F0F5FE2012A3
:1014300000F0ECFE3B498989491C88B200F0ECFEC3
:10144000E0B200F0E3FE65E03648808841F66311C3
:10145000884228D13348807920B932480088401E1C
:10146000C01A83B22F49488900F0D6FE181200F046
:10147000CDFED8B200F0CAFE181200F0C7FED8B2F6
:1014800000F0C4FE2749888900F0C6FE201200F053
:10149000BDFEE0B200F0BAFE201200F0B7FEE0B2EE
:1014A00000F0B4FE36E01F48808846F6040188420A
:1014B0001DD11C488079012804D11A480088401E9B
:1014C000C01A83B21749488900F0A6FE181200F02E
:1014D0009DFED8B200F09AFE1249888900F09CFE69
:1014E000201200F093FEE0B200F090FE12E00D48F2
:1014F0008079012804D10B480088401EC01A83B2AD
:1015000008494889194600F097FE0649888921460E
:1015100000F092FE0348008903490880881C05807A
:1015200030BD0000CE050020FE07006C2DE9FC4F09
:1015300005460E4617469846DDF82C90002001908F
:101540002748808846F60401884229D124488079BA
:10155000012825D1AB46354621480088C01B401ED6
:1015600086B247461E480088A0EB0B00401E1FFABB
:1015700080F800201A4988712A2048812B20888110
:1015800043463A4631462846CDF80090FFF7CEFF55
:101590000120134988712B2048812A2088811CE072
:1015A000781B401C80B20190344614E02146284646
:1015B00000F046FC00F036FE4FF0000A06E0094855
:1015C000A0F800900AF101001FFA80FA0198824504
:1015D000F5DB601C84B24445E8DDBDE8FC8F00000B
:1015E000CE0500200008006C00B59FB00121080264
:1015F00000F00CFF01214FF4B47000F027FF012030
:10160000ADF8780010208DF87B0003208DF87A006B
:101610001EA9FE48FFF71DFB4CF23370ADF87800B1
:1016200018208DF87B0003208DF87A001EA9F84859
:10163000FFF70FFB4FF68070ADF8780018208DF89B
:101640007B0003208DF87A001EA9F248FFF701FB0A
:1016500041F20100ADF8780018208DF87B000320DE
:101660008DF87A001EA9EC48FFF7F3FA01200890E4
:10167000002009900F200A9000200B900C900D90F4
:101680000E9001900290032003900020049005909A
:101690000690079006200F900020109011901020C7
:1016A00012900020139015901490169017904FF4FC
:1016B00080501890002019904FF480401A9000201C
:1016C0001B9008A81C9001A81D900FA8FFF74EFAC8
:1016D00001210620FFF730FA322001F09BFB0020A9
:1016E00000F030FACD49888008468088FF280ADB60
:1016F000084680884FF6FF71884204D0C74880882A
:10170000B0F5134F7ED1D32000F086FD00F010FA23
:10171000C249888000F00CFAC049888000F008FABD
:10172000BE498880084680884FF6FF7101EA002094
:10173000BA49888000F0FCF9B84989880843B7495C
:1017400088800846808849F2413188425AD0BF20BB
:1017500000F062FD00F0ECF9B049888000F0E8F993
:10176000AE49888000F0E4F9AC49888000F0E0F9E7
:10177000AA498880084680884FF6FF7101EA002058
:10178000A649888000F0D4F9A44989880843A34970
:1017900088800846808846F6040188427AD0D420A2
:1017A00000F03AFD00F0C4F99C49888000F0C0F9CF
:1017B0009A49888000F0BCF998498880084680885A
:1017C0004FF6FF7101EA00209449888000F0B0F9DB
:1017D000924989880843914988800846808845F263
:1017E0001031884256D04FF45A4000F015FD00F0F9
:1017F0009FF98A4988804FF45B4000F00DFD00F0AE
:1018000097F900E046E085498880084680884FF6D1
:10181000FF7101EA0020814988804FF45C4000F0AC
:10182000FBFC00F085F97D49898808437B49888065
:1018300008468088B0F5004F02D145F210508880EC
:101840007648808845F21051884223D0A12000F0CC
:10185000E3FC00F06DF97149888000F069F96F4987
:101860008880084680884FF6FF7101EA00206B49A6
:10187000888000F05DF96949898808436749888054
:101880000846808845F26171884203D141F66310B1
:10189000624988806148818861A001F035FE5F4817
:1018A000808849F2413188427ED1CF2000F0B4FCDB
:1018B000002000F0ABFCC12000F0A8FC302000F0BC
:1018C000A5FCED2000F0A8FC642000F09FFC0320A4
:1018D00000F09CFC122000F099FC812000F096FCA6
:1018E000E82000F099FC852000F090FC102000F02A
:1018F0008DFC7A2000F08AFCCB2000F08DFC392092
:1019000000F084FC2C2000F081FC002000F07EFC24
:10191000342000F07BFC022000F078FCF72000F07F
:101920007BFC202000F072FCEA2000F075FC002017
:1019300000F06CFC002000F069FCC02000F06CFCA2
:101940001B2000F063FCC12000F066FC012000F0C9
:101950005DFCC52000F060FC302000F057FC30201A
:1019600000F054FCC72000F057FCB72000F04EFCFC
:10197000362000F051FC482000F048FC3A2000F0EE
:101980004BFC552000F042FCB12000F045FC00204B
:1019900000F03CFC1A2000F039FCB62000F03CFCC2
:1019A0000A2000F033FC00E0A8E0A22000F02EFCAA
:1019B000F22000F031FC002000F028FC262000F08E
:1019C0002BFC012000F022FCE02000F025FC0F2081
:1019D00000F01CFC2A2000F019FC282000F016FC66
:1019E000082000F013FC0E2000F010FC082000F08E
:1019F0000DFC542000F00AFCA92000F007FC432055
:101A000000F004FC0A2000F001FC11E0000C014091
:101A1000001401400018014000200140CE050020C4
:101A2000204C43442049443A25780D0A0000000028
:101A30000F2000F0EBFB002000F0E8FB002000F09E
:101A4000E5FB002000F0E2FB002000F0DFFBE120DE
:101A500000F0E2FB002000F0D9FB152000F0D6FBDF
:101A6000172000F0D3FB072000F0D0FB112000F07E
:101A7000CDFB062000F0CAFB2B2000F0C7FB562050
:101A800000F0C4FB3C2000F0C1FB052000F0BEFBD1
:101A9000102000F0BBFB0F2000F0B8FB3F2000F04F
:101AA000B5FB3F2000F0B2FB0F2000F0AFFB2B2076
:101AB00000F0B2FB002000F0A9FB002000F0A6FB24
:101AC000012000F0A3FB3F2000F0A0FB2A2000F043
:101AD000A3FB002000F09AFB002000F097FB002001
:101AE00000F094FBEF2000F091FB112000F094FB3C
:101AF000782001F08FF9292000F08EFB0020FFF7FD
:101B00000DFB0120034908604FF6FF70FFF7D0FA84
:101B10001FB000BD8081214210B50246012000E0C7
:101B200050430B1EA1F10104E1B2F9D110BD000038
:101B300008B5034800880090BDF8000008BD00000B
:101B40000008006C00B50246104600F065FBFFF788
:101B5000EFFF00BD70B5044600230026B74880792A
:101B600001280BD1B548808846F60401884205D08B
:101B7000B248808841F66311884208D1AF48807925
:101B8000F0B9AE48808841F66311884218D1082C1C
:101B900015D2DFE804F00406080A0C0E1012062421
:101BA0000DE007240BE0042409E0052407E00124EC
:101BB00005E0002403E0032401E0022400BF00BF8D
:101BC0009E48808849F24131884217D09B488088DE
:101BD00046F60401884211D09848808845F21031B9
:101BE00088420BD09548808845F21051884205D034
:101BF0009248808841F6631188427DD1082C1CD21E
:101C0000DFE804F00406090C0F12151800BF14E0F9
:101C100043F0800311E043F040030EE043F0C003C3
:101C20000BE043F0200308E043F0600305E043F0DD
:101C3000A00302E043F0E00300BF00BF7F488088BC
:101C400045F21051884202D14FF4585600E0362632
:101C50007A48808845F2103188420DD077488088D4
:101C600045F21051884207D07448808841F66311CC
:101C7000884201D043F008037048808846F604018A
:101C8000884201D143F002031946304600F0D4FAED
:101C90006A48808841F6631188421DD003F0200015
:101CA00068B16648008865494988884214DA634803
:101CB0000588408861490880084645800CE05F48F7
:101CC00000885E494988884206DD5C48058840886E
:101CD0005A490880084645805848808845F2105186
:101CE000884254D15549488900F096FA002000F006
:101CF0008DFA5249498900E078E0491C88B200F029
:101D00008BFA002000F082FA4C494989891C88B27C
:101D100000F082FA49490988491EC1F30F2000F0FA
:101D200075FA46494989C91C88B200F075FA4349D9
:101D30000978491EC8B200F069FA4049888900F064
:101D40006BFA002000F062FA3C498989491C88B28C
:101D500000F062FA002000F059FA38498989891C9C
:101D600088B200F059FA35494988491EC1F30F205D
:101D700000F04CFA31498989C91C88B200F04CFA4C
:101D80002E498978491EC8B200F040FA55E02B4927
:101D9000488900F041FA002000F038FA002000F0F5
:101DA00035FA26490988491EC1F30F2000F02EFAA2
:101DB00022490978491EC8B200F028FA1F498889CB
:101DC00000F02AFA002000F021FA002000F01EFAAC
:101DD0001A494988491EC1F30F2000F017FA174924
:101DE0008978491EC8B200F011FA26E0082C1CD2EE
:101DF000DFE804F004070A0D0F12151843F0300352
:101E000013E043F0100310E043F020030DE000BFA7
:101E10000BE043F0380308E043F0280305E043F00B
:101E2000180302E043F0080300BF00BF032643F499
:101E300080531946304600F0FFF970BDCE050020F2
:101E400010B503460C466748808849F24131884204
:101E500005D06448808845F21031884214D1614928
:101E6000488900F0D9F9181200F0D0F9D8B200F082
:101E7000CDF95C49888900F0CFF9201200F0C6F94D
:101E8000E0B200F0C3F9ABE05648808846F60401A2
:101E900088421DD153488079012804D151480088D7
:101EA000401EC01A83B24F49488900F0B5F9181294
:101EB00000F0ACF9D8B200F0A9F94A49888900F0DD
:101EC000ABF9201200F0A2F9E0B200F09FF987E030
:101ED0004448808841F66311884247D1414880795F
:101EE000A8B940480088401EC01A83B23D494889BD
:101EF00000F092F9002000F089F9002000F086F946
:101F0000181200F083F9D8B200F080F916E03549D4
:101F1000488900F081F9181200F078F9D8B200F081
:101F200075F930490988491EC1F30F2000F06EF998
:101F30002C490978491EC8B200F068F929498889F6
:101F400000F06AF9201200F061F9E0B200F05EF9E9
:101F500024494988491EC1F30F2000F057F921494F
:101F60008978491EC8B200F051F939E01D488088CF
:101F700045F21051884220D11A49488900F04CF9A5
:101F8000181200F043F917494989491C88B200F03A
:101F900043F9D8B200F03AF91249888900F03CF9C7
:101FA000201200F033F90F498989491C88B200F0EA
:101FB00033F9E0B200F02AF912E00A4880790128EA
:101FC00004D108480088401EC01A83B205494889D8
:101FD000194600F031F903498889214600F02CF9AF
:101FE00010BD0000CE0500202DE9F84F80460E46BA
:101FF00017461C46B3462046E31704EB5373DB1029
:1020000021464FEAE47C04EB5C7C4FEAEC0CA4EB49
:10201000CC0CBCF1000F02D04FF0010C01E04FF0EE
:10202000000C6344224604EBD27C4FEA6C0C03FBA9
:102030000CF3DBB20093A7F12000C7B2002556E0F5
:102040000C2C07D107EB47002B4901EB800010F85F
:10205000059013E0102C05D1284800EB071010F86C
:1020600005900BE0182C07D107EBC700244901EBC2
:10207000800010F8059001E0BDE8F88F4FF0000AED
:102080002FE009F0800030B11E48028831464046FA
:10209000FFF78EF907E00A9828B91B4802883146F5
:1020A0004046FFF785F94FEA49604FEA1069701C16
:1020B00086B216484088B04200DCDDE7A6EB0B0094
:1020C000A0420AD15E4608F101001FFA80F80F48CD
:1020D0000088404500DCCFE706E00AF1010000F08F
:1020E000FF0ABAF1080FCCDB00BF681CC5B200982C
:1020F0008542A5DB00BFBFE7E84200085C47000857
:102100004C4D00085E00002060000020CE0500203D
:102110002DE9FF4F81B0074691461E460E9D4FF0B8
:10212000000A002439E0301B401EC1B20A20FFF72C
:10213000F3FCB9FBF0F00A21B0FBF1F201FB12084D
:10214000BAF1000F16D1701EA04213DDB8F1000FD6
:102150000ED10020AB4605EBDB71491001FB047189
:10216000009088B22B4620220299FFF73DFF12E033
:102170004FF0010A0020AB4605EBDB71491001FB73
:102180000471009088B208F13001CAB22B4602995E
:10219000FFF72AFF00BF601CC4B2B442C3DB05B026
:1021A000BDE8F08F2DE9F84704460D469046994664
:1021B000DDE9096704F0FF0A08EB04001FFA80F864
:1021C00009EB05001FFA80F916E0444502DB54468E
:1021D000A81985B24D4500DB14E0002000903A7844
:1021E000334629462046FFF7FFFE304606EBD07106
:1021F00004EB61018CB27F1C38787E2802DC3878D1
:102200002028E2DA00BFBDE8F88700000149088015
:10221000704700000008006C01490880704700000A
:10222000FE07006C024800890249088070470000E0
:10223000CE050020FE07006C024A1080921C11801F
:1022400070470000FE07006C10B520211748FEF70C
:1022500094FD20211648FEF790FD4FF4FA7000F02F
:10226000D9FD20211148FEF78AFD20211048FEF7F4
:1022700086FD4FF4FA7000F0CDFD20210B48FEF7EB
:102280007CFD4FF4FA7000F0C5FD20210748FEF7F1
:1022900076FD20210648FEF770FD4FF4FA7000F03D
:1022A000B9FD20210248FEF76AFD10BD000C014077
:1022B0000018014008B50121482000F0C7F810209F
:1022C0008DF803002020ADF8000003208DF80200F7
:1022D00069460448FEF7BDFC69460348FEF7B9FCB1
:1022E00008BD0000000C01400018014000BFFEE7DF
:1022F0007047000070B5002100230F22C47804B39A
:10230000154C246804F4E064C4F5E064210AC1F1CA
:102310000403CA40447804FA03F18478144021434A
:1023200009010E4C0678A155047804F01F0501241C
:10233000AC4005786D11AD0005F1E025C5F8004110
:1023400009E0047804F01F050124AC40044D067830
:10235000761145F8264070BD0CED00E000E400E089
:1023600080E100E002490143024A11607047000029
:102370000000FA050CED00E001490862704700001A
:1023800000000E42704710B50246C868401C4B68FA
:10239000B0FBF3F403FB14008B68984201D10020DA
:1023A00010BDCB680868C254C868401C4B68B0FBBD
:1023B000F3F403FB1400C8600869401C4B68B0FBD1
:1023C000F3F403FB140008610120E9E700239360A4
:1023D000D360136151601060704710B50246D1E9B7
:1023E0000230984201D1002010BD8B680868C05CA3
:1023F00010708868401C4B68B0FBF3F403FB1400BA
:1024000088600869401E08610120EDE729B1064A8D
:1024100052690243044B5A6104E0034A5269824301
:10242000014B5A61704700000010024029B1064A72
:10243000D2690243044BDA6104E0034AD269824361
:10244000014BDA61704700000010024029B1064AD2
:1024500092690243044B9A6104E0034A9269824301
:10246000014B9A617047000000100240014908606A
:10247000704700004004424230B500210022002491
:1024800000232D4D6D6805F00C0121B1042905D004
:10249000082923D105E0294D056022E0274D05607C
:1024A0001FE0254D6D6805F47012234D6D6805F42D
:1024B0008034022505EB92421CB9214D554305603D
:1024C0000BE01D4D6D6805F400351DB11C4D5543E5
:1024D000056002E0194D5543056002E0174D0560A7
:1024E00000BF00BF144D6D6805F0F0010909154DDE
:1024F0006B5C0568DD4045600F4D6D6805F4E0617B
:10250000090A104D6B5C4568DD4085600A4D6D68B9
:1025100005F46051C90A0B4D6B5C4568DD40C56030
:10252000054D6D6805F44041890B074D6B5CC5682E
:10253000B5FBF3F5056130BD0010024000127A00D2
:1025400000093D00000000201000002010B50146E9
:102550000022002300204A11012A02D1094C2368DD
:1025600006E0022A02D1074C236A01E0054C636AA7
:1025700001F01F02012494401C400CB1012000E036
:10258000002010BD0010024000210B4A11700A4AC1
:10259000203A82F82010012802D0042808D103E054
:1025A0000121054A117004E00521034A117000E081
:1025B00000BF00BF704700002010024001490860C2
:1025C000704700003C0442420249096A0143014A43
:1025D0001162704700100240024909888143014A94
:1025E00011807047042800400348008840F0100024
:1025F0000149088070470000042800400348008813
:102600004FF6EF71084001490880704704280040E8
:1026100070B500260024002500F07AF806463848F8
:10262000B6FBF0F437480088A0423CD035490C8016
:1026300040F2B27510E02846FEF7FEFC40B1B4F55A
:10264000B77F02D3A4F5B77404E0681C85B206E036
:10265000A4F26D14681C85B2B4F5B67FEBD800BF48
:1026600029488580002516E027498888FEF7E4FC84
:1026700030B1012D04D11D2C01D31D3C09E00CE02B
:102680002248405DA04203D82048405D241A00E063
:1026900003E0681C85B21C2CE6D200BF681C1A49F6
:1026A0008871601CC8711648B6FBF0F100FB11641C
:1026B0004FF46160B4FBF0F0134908704FF46160AF
:1026C000B4FBF0F100FB11403C21B0FBF1F00E49EE
:1026D00048704FF46160B4FBF0F100FB11403C2105
:1026E000B0FBF1F201FB1200074988700B46DA7962
:1026F0009979988800F028F803490872002070BD85
:10270000805101005C000020C4050020DC4200086C
:10271000002103480188001F008841EA00407047FB
:102720001C28004001460020064A12880A40D0B208
:10273000044A121F12880A4012B108B1012000E0B9
:102740000020704704280040F0B503460C461546AB
:10275000642093FBF0F0C6B2642093FBF0F700FB1B
:102760001730C1B2132E02DD01F16400C1B2084678
:10277000CF1701EB977701EBA707BAB2072092FBBF
:10278000F0F700FB172082B25719601EDFF82CC04B
:102790001CF80000384482B2CF1701EB9777BF10C6
:1027A000A1EB87071FB9032C01DA501E82B2072064
:1027B00092FBF0F700FB1720C0B2F0BDD04200083A
:1027C0000EB50120FFF7AEFF08B1FFF721FF022091
:1027D000FFF7A8FFA0B10220FFF7FEFEFFF718FFEA
:1027E0000A48807809494978084A1278CDE90021D9
:1027F00002900648C3798279818805A000F084FEA2
:102800000520FFF7E9FE00F015F90EBDC405002014
:10281000416C61726D2054696D653A25642D2564A3
:102820002D25642025643A25643A25640A000000B9
:1028300029B1064A12880243044B1A8004E0034A75
:1028400012888243014B1A80704700000028004024
:102850001CB5002401214FF0C050FFF7E7FD012017
:10286000FFF78AFD0420FDF7D1FD45F250018842B3
:1028700040D0FDF7C3FD0120FFF786FE04E0601C99
:10288000C4B20A2000F0C6FA4120FFF75FFE08B983
:10289000FA2CF4DBFA2C01DB01201CBD4FF4807014
:1028A000FFF792FE0120FFF789FE00F0C3F800F069
:1028B000CBF801210846FFF7BBFF00F0BBF8FFF79C
:1028C00093FE47F6FF7000F0A5F800F0B3F837204C
:1028D0002A2111231422CDE900100C2140F2E470CA
:1028E00000F026F8FFF78AFE45F250010420FDF7BC
:1028F0009BFD07E000F0A8F801210846FFF798FFCC
:1029000000F098F800F004F8FFF782FE0020C4E71A
:1029100008B503208DF8000000208DF801008DF827
:10292000020001208DF803006846FFF7E3FC08BDB4
:102930002DE9F05F06460F4690469946DDE90AAB61
:10294000002440F2B270864203DB40F63300864238
:1029500002DD0120BDE8F09F40F2B2750AE0284692
:10296000FEF76AFB10B12048044401E01F4804440C
:10297000681C85B2B542F2DB781EC7B2002510E0B4
:102980001B48405D40F2A321484304EBC01430468D
:10299000FEF752FB18B1012D01D116480444681C02
:1029A00085B2BD42ECDBA8F1010040F2A32148430F
:1029B00004EBC014C9EB4910C0EB092004EB001470
:1029C000CAEB0A1004EB80045C4401214FF0C050B4
:1029D000FFF72CFD0120FFF7CFFC204600F00CF89C
:1029E00000F028F80020B5E70085E2018033E1011E
:1029F000DC4200088051010000B50246FFF7F4FDFB
:102A0000100C03490880091D0A80FFF7F7FD00BD7F
:102A10001828004000B50246FFF7E6FDC2F3034068
:102A200003490880091D0A80FFF7E8FD00BD00008A
:102A30000828004000BF0348008800F0200000285C
:102A4000F9D0704704280040074800884FF6F77116
:102A500008400549088000BF0348008800F00800CE
:102A60000028F9D07047000004280040704710B5D6
:102A700000F002F810BD00000CB50020019000909D
:102A80003348006840F480303149086000BF304866
:102A9000006800F4003000900198401C01900098FC
:102AA00018B90198B0F5A06FF1D12948006800F479
:102AB000003010B10120009001E00020009000984B
:102AC000012843D12348006840F0100021490860E4
:102AD0000846006820F0030008600846006840F0DF
:102AE000020008601A484068194948600846406872
:102AF00048600846406840F4806048600846406886
:102B000020F47C1048600846406840F4E8104860B3
:102B10000846006840F08070086000BF0C480068FC
:102B200000F000700028F9D00948406820F0030048
:102B3000074948600846406840F00200486000BF0E
:102B40000348406800F00C000828F9D10CBD0000D3
:102B500000100240002002401CB5FDF72BFE00F0E3
:102B60007BF900F009FCFFF7A5FBFDF755FDFEF72B
:102B700081FA00225F49604801F0FDF900225F49B7
:102B80005F4801F0F8F901225E495F4801F0F3F96E
:102B90005E4A0321584800F050FE5C4A0421564822
:102BA00000F04BFE594A0621534800F046FE584AB1
:102BB0000321534800F041FE554A0421504800F0DB
:102BC0003CFE534A06214E4800F037FE514A03218D
:102BD0004D4800F032FE4F4A04214B4800F02DFED4
:102BE0004C4A0521484800F028FE434801F0DCF932
:102BF000434801F0D9F9444801F0D6F946A000F065
:102C000083FC46A000F080FC4EA000F07DFC57A0A5
:102C100000F07AFC5EA000F077FC4AA000F074FCA3
:102C20003EA000F071FC3CA000F06EFCFEF7DCFC66
:102C3000FFF70EFE37202A2111231422CDE90010C0
:102C40000C2140F2E470FFF773FEFDF727FB012033
:102C50005949087009E059A010210B46C822CDE956
:102C6000001072211E20FFF79DFAFDF700FB0028DF
:102C7000F1D1322255499620FDF714FB534954A057
:102C800000F042FC514810210B46DC22CDE9001037
:102C90004FF487711E20FFF785FA52A010210B46D2
:102CA000C822CDE900104FF496713220FFF77AFA6E
:102CB00011E051A010210B46C822CDE9001055218A
:102CC0001E20FFF76FFA20214F48FEF75AF8202107
:102CD0004E48FEF756F8FDF7A5FD0028E9D1FFF7AD
:102CE000B3FA00F063F948F2304049490880002007
:102CF00008801CBD294000088400002039400008DD
:102D0000AC00002049400008D400002045380008ED
:102D1000713900087D3A00080D0A00002A2A2A2A83
:102D20002A2A2A2A2A2A2A2A2A2A2A2A2A2A2A2A03
:102D30002A2A2A2A2A2A2A2A2A2A2A2A2A2A2A0D10
:102D40000A0000002A2020202020202020202020EF
:102D50002020202020202020202020202020202073
:102D60002020202020202A0D0A0000002A202020D8
:102D7000200952425F537464696F20207665727334
:102D8000696F6E20322E3020202020202A0D0A006C
:102D90002A202020202020B8FCD0C24448543131C1
:102DA0002020D3C5BBAFC6BDCCA82020202020202A
:102DB00020202A0D0A000000680000203234433031
:102DC0003220434845434B202E2E2E00DC050020A8
:102DD000446174615F3234633032203D3D2025739D
:102DE0000D0A0000506F77657220627920526220D0
:102DF000537464696F0000004448543131204348E3
:102E000045434B202E2E2E0000180140000C01409F
:102E10005E000020002181F3108800BF0349086094
:102E200000BF024909680029FBD170473801002022
:102E30004FF0E02252694FF47A73B2FBF3F2504341
:102E40004FF0E022916900BF4FF0E02292698A1AA8
:102E50008242F9D37047000070B5002005E00021E0
:102E60001A4A42F82010411CC8B20928F7DB00209A
:102E700005E00021164A42F82010411CC8B2102873
:102E8000F7DB144AB2F1807F00D31DE022F07F41CE
:102E9000491E4FF0E023596159170F23002907DA23
:102EA0001C07260E0C4C01F00F052D1F665503E084
:102EB0001C07250E094C655400BF00214FF0E0238C
:102EC00099610721196100BF70BD00003801002021
:102ED0005C0100204019010018ED00E000E400E072
:102EE00000200CE0164951F8201031B1144951F876
:102EF0002010491E124A42F82010411CC8B209286D
:102F0000F0DB00200CE00F4951F8201031B10D49E1
:102F100051F82010491E0B4A42F82010411CC8B23B
:102F20001028F0DB08490968074A1268521C064B52
:102F3000491C1A6011B900211A461160704700003F
:102F4000380100205C0100205400002010B5134817
:102F5000006840F0010011490860084640681049C7
:102F600008400E494860084600680E4908400B4971
:102F700008600846006820F4802008600846406821
:102F800020F4FE0048604FF41F008860FFF76FFDDB
:102F90004FF000600449086010BD000000100240BE
:102FA0000000FFF8FFFFF6FE08ED00E010B500247A
:102FB00000BF10E0094850F8240050B9084800EB61
:102FC000C4004068054941F82400054951F834001F
:102FD0008047601CC4B2052CECD310BD5C010020FE
:102FE0002400002010B5002400BF10E0094850F86C
:102FF000240050B9084800EBC4004068054941F876
:103000002400054951F834008047601CC4B2052CE7
:10301000ECD310BD5C0100202400002010B520215D
:10302000194800F07EF880B1174800F043F9C4B2A7
:1030300016492046FFF7A7F915480088401C144997
:1030400008802021104800F057F840F224410E4833
:1030500000F074F850B10E4908780E49FFF793F963
:1030600000200B490880084800F024F90821064890
:1030700000F057F8012806D1034800F01BF9082199
:10308000014800F039F810BD003801409C010020D3
:1030900058000020B001002010B52021094800F0A0
:1030A00040F818B12021074800F026F8082105480B
:1030B00000F037F8012803D10821024800F01CF87D
:1030C00010BD00000044004010B52021094800F068
:1030D00028F818B12021074800F00EF8082105480B
:1030E00000F01FF8012803D10821024800F004F87D
:1030F00010BD00000048004001F40072B2F5007FEE
:1031000000D100BFCA430280704721B1828942F4D6
:103110000052828104E082894DF6FF731A40828159
:10312000704702460020B1F5007F00D100BF138830
:103130000B400BB1012000E00020704770B5024643
:10314000002400230025002040F66A16B14200D179
:1031500000BFC1F3421501F01F03012606FA03F375
:10316000012D02D19689334006E0022D02D1168A44
:10317000334001E0968A33400C12012606FA04F42B
:103180001688344013B10CB1012000E0002070BD5E
:10319000F0B50346002400260025002040F66A17FB
:1031A000B94200D100BF1846C1F3421401F01F0616
:1031B000012707FA06F5012C01D10C3004E0022C9E
:1031C00001D1103000E014301AB107682F430760B6
:1031D00002E00768AF430760F0BD00002DE9F0474B
:1031E00086B005460E460024A24600BFA146002731
:1031F000B08900B100BF2F462C8A4CF6FF70044006
:10320000F08804432C82AC894EF6F3100440B08859
:1032100031890843718908430443AC81AC8A4FF675
:10322000FF400440B0890443AC8201A8FFF724F9B1
:103230001F48874202D1DDF810A001E0DDF80CA0A4
:10324000A88900F4004040B10AEBCA0000EB0A1064
:1032500031684900B0FBF1F807E00AEBCA0000EB67
:103260000A1031688900B0FBF1F86420B8FBF0F077
:1032700004012009642101FB1089A88900F40040A1
:1032800040B1322000EBC900B0FBF1F000F00700C4
:10329000044308E0322000EB09106421B0FBF1F098
:1032A00000F00F0004432C8106B0BDE8F087000059
:1032B0000038014001468888C0F308007047C1F318
:1032C00008028280704700BFFEE710B500F002F8E8
:1032D00010BD0000F8B50026002500200090002455
:1032E0001848006908B90020F8BD1648067C00257A
:1032F00024E014496846FFF770F8002406E01249FC
:1033000008191249FFF769F8601CC4B29DF8000063
:103310008442F4DB00200C4908550DA10A48FCF753
:1033200035FF48B90D480068401C0C490860084644
:1033300001680BA000F0E8F8681CC5B2B542D8DB04
:103340000120D1E7B0010020C40300209C0100202F
:1033500042656570546F67676C6500001800002057
:10336000526967687420446F6E652054696D657397
:103370003A25640A0000000000B587B05B4A4FF4AC
:1033800080715B48FFF722F85A4A4FF480715A481F
:10339000FFF71CF801210420FFF758F801218803EA
:1033A000FFF754F818208DF81B004FF40070ADF8AB
:1033B000180003208DF81A0006A95048FDF749FCB3
:1033C00004208DF81B000002ADF8180003208DF8D2
:1033D0001A0006A94948FDF73CFC4FF4E130029081
:1033E0000020ADF80C00ADF80E00ADF810000C2078
:1033F000ADF812000020ADF8140002A94048FFF714
:10340000EDFE25208DF8040001208DF805008DF8D3
:1034100006008DF8070001A8FEF76CFF012240F2BC
:1034200025513748FFF7B4FE012240F224413448C9
:10343000FFF7AEFE01213248FFF767FE402130481A
:10344000FFF75AFE01210420FFF700F8012148048C
:10345000FEF7ECFF18208DF81B000420ADF81800D3
:1034600003208DF81A0006A92448FDF7F2FB04207A
:103470008DF81B000820ADF8180003208DF81A0005
:1034800006A91E48FDF7E5FB4FF4E130029000204D
:10349000ADF80C00ADF80E00ADF810000C20ADF842
:1034A00012000020ADF8140002A91648FFF796FE9E
:1034B00026208DF8040001208DF805008DF8060007
:1034C0008DF8070001A8FEF715FF012240F22551F3
:1034D0000C48FFF75DFE01210A48FFF716FE402168
:1034E0000848FFF709FE07B000BD00009C0100205E
:1034F000C4010020B0010020C402002000080140E7
:1035000000380140004400400FB4054B10B503A93A
:10351000044A029800F02CF810BC5DF814FB00007F
:10352000F13F0008800000200FB4084B10B504A93B
:1035300002AA039800F01CF8044602A9002000F03B
:1035400077F9204610BC5DF814FB00003138000804
:1035500002E008C8121F08C1002AFAD1704770475C
:10356000002001E001C1121F002AFBD170470000BA
:103570002DE9FF4F8DB09B460F460446002606E01E
:1035800025280BD05A460F999047641C761C20784A
:103590000028F5D111B03046BDE8F08F0025A846CF
:1035A0000122984900E0054314F8013F203B02FA4C
:1035B00003F00842F7D120782E2817D114F8010F14
:1035C00045F004052A280ED06FF02F022078A0F1D4
:1035D000300109290AD808EB880102EB410100EB10
:1035E0000108641CF2E757F8048B641C20786C28EF
:1035F0000DD004DC4C2812D06A2811D104E07428C4
:103600000DD07A280CD10AE045F4001507E0617866
:1036100045F48015814202D1641C05F58015641CB7
:103620002278692A45D008DC002AB3D0582A69D00C
:10363000632A10D0642A08D13BE0702A67D0732A2D
:1036400013D0752A5CD0782A5CD010465A460F9960
:103650009047761CD3E017F8040B8DF8000000208B
:103660008DF80100E946012003E057F8049B4FF074
:10367000FF3069074FF0000501D40AE06D1C454595
:103680000DDA8542FADB19F805100029F6D106E0BB
:103690006D1C8542FCDB19F805100029F8D12E4479
:1036A00004E019F8010B5A460F9990476D1EF8D2A5
:1036B000A5E00A200021CDE90801C5F30250022847
:1036C0000DD001CFC117031E71F100030DDA4FF0C9
:1036D000000CD0EB0C006CEB01012D2308E0FF1D6A
:1036E00027F00707F7E80201EDE72B0504D52B23A8
:1036F0008DF8283001233BE0EB0739D02023F7E792
:103700000A2000E010200021CDE9080107E0102088
:10371000002145F00405CDE908014FF00808C5F384
:10372000025002280FD001CF00214FF0000A2B07D2
:103730001FD5702A0DD0DDE908C38CF0100C5CEAAF
:10374000030C0CD015E0FF1D27F00707F7E8020176
:10375000EBE740228DF828204FF0010A0BE050EAF9
:10376000010306D030238DF828308DF8292002235C
:103770009A46582A04D024A20DF120090B9209E0A0
:1037800026A2F9E7DDE90823FCF70EFD0B9B9B5C05
:1037900009F8013D50EA0102F4D1ADEB09002030F7
:1037A0000890680701D44FF001080899884502DDA8
:1037B000A8EB010000E000208046002506E00AA8F2
:1037C0005A46405D0F9990476D1C761C5545F6DBB7
:1037D00004E030205A460F999047761CB8F100015A
:1037E000A8F10108F5DC05E019F8010B5A460F991C
:1037F0009047761C0899481E08900029F4DC641C48
:10380000C5E600000928010030313233343536373F
:10381000383961626364656600000000303132331C
:1038200034353637383941424344454600000000BC
:103830000A68531C0B601070704700F1080343F8CE
:10384000212070477CB50446204600F0E3FB054686
:10385000032D04D0042D16D0062D35D109E01BA070
:10386000FFF752FE21480078022801D100F092FCB7
:103870002AE01FA0FFF748FE1C480078022801D16B
:1038800000F088FC20E023A0FFF73EFE2B480178E3
:103890002BA0FFF739FE304800210160502201467D
:1038A00026480078FCF7FEFC2B492CA0FFF72CFEE5
:1038B000294810210B46FA22CDE900104FF48771F8
:1038C0001E20FEF76FFC00BF00BF7CBD2D2D2D3EDE
:1038D000206B6579312073696E676C6520636C6954
:1038E000636B21203C2D2D2D0D0A00006800002067
:1038F0002D2D2D3E206B657931206C6F6E67207009
:103900007265737320737461727421203C2D2D2DA8
:103910000D0A00002D2D2D3E206B65793120646F3E
:1039200075626C6520707265737320737461727454
:1039300021203C2D2D2D0D0A000000007C000020D0
:1039400052656164A1AAA1AA636E745F32346330C8
:10395000323A2564200D0A00DC05002044617461C0
:103960005F3234633032203D3D2025730D0A000064
:103970007CB50546284600F04DFB0646032E04D0D4
:10398000042E16D0062E3BD109E01EA0FFF7BCFD89
:1039900024480078022801D100F05EFB30E022A02C
:1039A000FFF7B2FD1F480078022801D100F054FB58
:1039B00026E026A0FFF7A8FD2E48002101601E2466
:1039C0001BE0A0B250222B49FCF76CFC0520FFF74E
:1039D00021FA4FF478402849088026480C21CDE987
:1039E000001004F1690081B20C23C8220F20FEF7F9
:1039F000D9FB0020204908801E34962CE1DD00BF51
:103A000000BF7CBD2D2D2D3E206B65793220736962
:103A10006E676C6520636C69636B21203C2D2D2DD6
:103A20000D0A0000680000202D2D2D3E206B6579C9
:103A300032206C6F6E6720707265737320737461CF
:103A4000727421203C2D2D2D0D0A00002D2D2D3EB0
:103A5000206B65793220646F75626C6520707265C9
:103A6000737320737461727421203C2D2D2D0D0A07
:103A700000000000DC0500205E0000207CB504464C
:103A8000204600F0C7FA0546032D04D0042D73D05C
:103A9000052D70D171E072A0FFF736FD78480078EF
:103AA000022868D177480078401C7649087008469B
:103AB0000078052801DD012008704FF47840724934
:103AC000088070480078062854D2DFE800F05303DD
:103AD000132333434FF6FF708E237E221946009046
:103AE0006620FDF723FD6623602219463620FDF788
:103AF000F5FB3FE04FF6FF70662360221946009009
:103B00003620FDF713FD6623862219467220FDF745
:103B1000E5FB2FE04FF6FF706623862219460090E2
:103B20007220FDF703FD6623A82219469220FDF7B7
:103B3000D5FB1FE04FF6FF706623A82219460090C0
:103B40009220FDF7F3FC8E235A2219464420FDF7FC
:103B5000C5FB0FE04FF6FF708E235A2219460090E6
:103B60004420FDF7E3FC8E237E2219466620FDF7F4
:103B7000B5FB00BF00BF70E037E0444800210160A2
:103B8000434801604348007843490978CDE9001073
:103B900042484378027842A13C48FFF7C5FC4648BA
:103BA00000781E3044490870502238494248007855
:103BB000FCF7B5FB40480078962802DD1E203E4900
:103BC00008703D4802783DA13148FFF7ADFC304810
:103BD0000C211023C822CDE90010E6219420FEF725
:103BE000E1FA3AA0FFF790FC37E03EA0FFF78CFC2B
:103BF0004648007808B9012000E0002043490870D9
:103C000008460078012808D141A0FFF77DFC02207A
:103C10001B490870FCF7ECFE1EE042A0FFF774FCA5
:103C20000120174908704FF6FF70FDF741FA002098
:103C300015490880002140480078CDE900013F483F
:103C400003783F4802783F4801783F480088FEF7F4
:103C50006FFE00200B49087000BF00BF7CBD000054
:103C60002D2D2D3E206B6579332073696E676C6551
:103C700020636C69636B21203C2D2D2D0D0A000003
:103C800068000020700000205E000020DC0500209D
:103C90002C0600202100002020000020C405002068
:103CA00025643A25643D3D54656D703A25642C4881
:103CB000756D3A25640000007C00002077697274FD
:103CC0006520636E743A2564000000004040323481
:103CD0006330322077726974652066696E69736833
:103CE0000D0A00002D2D2D3E206B65793320646F69
:103CF00075626C6520707265737320737461727481
:103D000021203C2D2D2D0D0A000000007D000020FB
:103D1000454E5445522053455454494E47204D4535
:103D20004E550A00455854492053455454494E476E
:103D3000204D454E550A00007A00002078000020F2
:103D400076000020740000207200002070B5044648
:103D5000606880470546E07800F00700002802DD33
:103D60002088401C2080E078B5EBD01F13D0E0788D
:103D7000C008401CE17860F3C501E170C1F3C200E6
:103D800003280CDBE07865F3C710E070E07820F0E2
:103D90003800E07003E0E07820F03800E070E07870
:103DA00000F00700062826D2DFE800F0032652A123
:103DB000E3C2E078C0F38010E178B0EBD11F15D1F9
:103DC000A07820F0F000A070A06810B12046A16893
:103DD000884700202080A07820F00F00401CA070B1
:103DE000E07820F00700401CE07004E0A07820F0AC
:103DF000F0008030A070BCE0E078C0F38010E17883
:103E0000B0EBD11F11D0A07820F0F0001030A070DE
:103E1000E06810B12046E168884700202080E07803
:103E200020F00700801CE07011E02088C8280EDD1B
:103E3000A07820F0F0005030A070E06910B120466A
:103E4000E1698847E07820F00700401DE07090E0CD
:103E5000E078C0F38010E178B0EBD11F20D1A078DA
:103E600020F0F000A070A06810B12046A16888473B
:103E7000A078401CA17860F30301A170A07820F025
:103E8000F0002030A070206910B1204621698847D9
:103E900000202080E07820F00700C01CE07025E0C2
:103EA00020883C2822DDA07800F00F0001280AD1EC
:103EB000A07820F0F0003030A070606990B120460A
:103EC000616988470EE0A07800F00F00022809D150
:103ED000A07820F0F0004030A070A06910B120461A
:103EE000A1698847E07820F00700E07041E0E078C1
:103EF000C0F38010E178B0EBD11F18D0A07820F08B
:103F0000F0001030A070E06810B12046E1688847EA
:103F100020883C2807DA00202080E07820F0070085
:103F2000801CE07003E0E07820F00700E07020E003
:103F3000E078C0F38010E178B0EBD11F0AD1A0780F
:103F400020F0F0006030A070206A88B12046216A1D
:103F500088470DE0A07820F0F0001030A070E068F5
:103F600010B12046E1688847E07820F00700E07053
:103F700000BF00BF70BD70B504460D46164628212F
:103F80002046FCF7F8F8A07820F0F0008030A07010
:103F9000656060688047E17860F3C711E170E078A0
:103FA00066F38610E07070BD01460948026805E0BE
:103FB0008A4202D14FF0FF307047526A002AF7D18F
:103FC000034800684862024801600020F4E70000EE
:103FD0006400002010B50548046803E02046FFF7A0
:103FE000B5FE646A002CF9D110BD00006400002009
:103FF00070B504460D46E1B20548FFF760F900BF11
:1040000040210348FFF78DF80028F9D0204670BD05
:10401000003801400146887800097047FEF79CFD92
:1040200001E0FEF7DFFFFCE710B510210148FCF7C7
:104030009BFE10BD0018014010B508210148FCF797
:1040400093FE10BD0018014010B501210148FCF796
:104050008BFE10BD0008014008B5444800780628D2
:104060007DD2DFE800F07C031C344C6440480088BB
:10407000401C3F4908800846008840F633018842CA
:1040800003DD40F2E4703A490880182004230090D0
:10409000374802884E213620FEF73AF85FE035486F
:1040A0000088401C00B2334908800846B0F900007F
:1040B0000C2801DD012008801820022300902D48E3
:1040C000B0F900204E217020FEF722F847E02A4880
:1040D0000088401C00B2284908800846B0F900005A
:1040E0001F2801DD012008801820022300902248AB
:1040F000B0F900204E219220FEF70AF82FE01F4869
:104100000088401C00B21D4908800846B0F9000034
:10411000182801DD0020088018200223009017488D
:10412000B0F9002076214420FDF7F2FF17E0144893
:104130000088401C00B2124908800846B0F900000F
:104140003C2801DD002008801820022300900C4844
:10415000B0F9002076216620FDF7DAFF00BF00BF2E
:104160000248017807A0FFF7CFF908BD70000020D2
:1041700072000020740000207600002078000020EB
:104180007A00002053454C4543545F54494D453A0D
:104190002564000008B54448007806287DD2DFE891
:1041A00000F07C031C344C6440480088401E3F49AA
:1041B00008800846008840F2C671884203DC40F25D
:1041C000E4703A4908801820042300903748028898
:1041D0004E213620FDF79CFF5FE035480088401EE9
:1041E00000B2334908800846B0F90000002801DC1D
:1041F0000C2008801820022300902D48B0F90020E0
:104200004E217020FDF784FF47E02A480088401EB9
:1042100000B2284908800846B0F90000002801DCF7
:104220001F2008801820022300902248B0F90020A7
:104230004E219220FDF76CFF2FE01F480088401EA2
:1042400000B21D4908800846B0F90000002801DAD4
:10425000182008801820022300901748B0F9002089
:1042600076214420FDF754FF17E014480088401ED3
:1042700000B2124908800846B0F90000002801DAAF
:104280003C2008801820022300900C48B0F9002040
:1042900076216620FDF73CFF00BF00BF0248017891
:1042A00007A0FFF731F908BD700000207200002060
:1042B0007400002076000020780000207A000020A2
:1042C00053454C4543545F54494D453A25640000DD
:1042D0000003030601040602050003051F1C1F1E40
:1042E0001F1E1F1F1E1F1E1F0000000000000000D9
:1042F00000000000000000003F400000000000003F
:1043000000003000400030004000000009000BC0F9
:104310003D000BC03D00090018C024407FE0224052
:1043200031800000180024C01B000D803240018045
:1043300003801C4027401C800740004010006000A4
:1043400000000000000000000000000000001F80CE
:10435000204040200000402020401F80000000003E
:10436000090006001F800600090000000400040088
:104370003F80040004000000001000600000000006
:104380000000000004000400040004000400000019
:10439000000000400000000000000000002001C0FC
:1043A00006003800400000001F80204020402040D0
:1043B0001F800000000010403FC0004000000000CF
:1043C00018C02140224024401840000010802040A6
:1043D000244024401B80000002000D0011003FC05B
:1043E000014000003C802440244024402380000001
:1043F0001F8024402440344003800000300020000F
:1044000027C03800200000001B80244024402440A6
:104410001B8000001C0022C0224022401F800000A0
:104420000000000008400000000000000000000044
:104430000460000000000000000004000A001100F9
:10444000208040400900090009000900090000001F
:1044500000004040208011000A00040018002000E5
:1044600023402400180000001F80204027402940DE
:104470001F400000004007C039000F0001C000408D
:1044800020403FC0244024401B8000001F8020406B
:10449000204020403080000020403FC0204020408D
:1044A0001F80000020403FC024402E4030C000004C
:1044B00020403FC024402E00300000000F0010803C
:1044C000204022403380020020403FC0040004000E
:1044D0003FC02040204020403FC0204020400000FE
:1044E0000060202020203FC02000200020403FC04E
:1044F00024400B0030C0204020403FC020400040FE
:10450000004000C03FC03C0003C03C003FC0000072
:1045100020403FC00C4023003FC020001F802040AF
:10452000204020401F80000020403FC02440240045
:10453000180000001F802140214020E01FA0000043
:1045400020403FC02440260019C0004018C024402D
:104550002440224031800000300020403FC02040F5
:104560003000000020003F80004000403F802000DD
:1045700020003E0001C0070038002000380007C0BE
:104580003C0007C038000000204039C0060039C098
:10459000204000002000384007C0384020000000C4
:1045A000304021C02640384020C0000000000000FC
:1045B0007FE0402040200000000070000C000380DD
:1045C000004000000000402040207FE0000000008C
:1045D000000020004000200000000000001000103B
:1045E000001000100010001000000000400000004B
:1045F00000000000000002800540054003C00040AC
:1046000020003FC0044004400380000000000380FD
:1046100004400440064000000000038004402440A1
:104620003FC00040000003800540054003400000FB
:10463000000004401FC0244024402000000002E08D
:10464000055005500650042020403FC0044004009F
:1046500003C000400000044027C0004000000000EC
:1046600000100010041027E00000000020403FC0B0
:104670000140070004C00440204020403FC00040EB
:104680000040000007C0040007C0040003C0000091
:10469000044007C00440040003C000400000038041
:1046A0000440044003800000041007F0045004405C
:1046B00003800000000003800440045007F0001055
:1046C000044007C00240040004000000000006404F
:1046D0000540054004C00000000004001F800440A5
:1046E00000400000040007800040044007C0004074
:1046F0000400070004C0018006000400060001C099
:10470000070001C006000000044006C0010006C00A
:10471000044000000410071004E0018006000400BB
:104720000000044005C006400440000000000000F6
:1047300004007BE040200000000000000000FFF0CB
:1047400000000000000040207BE0040000000000AA
:1047500040008000400020002000400000000000D9
:104760000000000000000000000000000000000049
:1047700000001FCC000C000000000000000008003A
:10478000300060000800300060000000022003FCE0
:104790001E20022003FC1E200220000000000E1834
:1047A00011043FFF10840C78000000000F001084FB
:1047B0000F3800C0077818840078000000780F8454
:1047C00010C411240E9800E400840008080068005A
:1047D0007000000000000000000000000000000069
:1047E000000007E01818200440020000000040020A
:1047F0002004181807E000000000000002400240FA
:1048000001800FF001800240024000000080008023
:1048100000800FF800800080008000000001000D83
:10482000000E0000000000000000000000000080FA
:104830000080008000800080008000800000000C6C
:10484000000C000000000000000000000000000656
:10485000001800600180060018002000000007F02A
:10486000080810041004080807F0000000000804FD
:1048700008041FFC000400040000000000000E0CEF
:1048800010141024104411840E0C000000000C18A9
:1048900010041104110412880C700000000000E0E4
:1048A0000320042408241FFC0024000000001F989B
:1048B000108411041104108810700000000007F02B
:1048C00008881104110418880070000000001C0002
:1048D000100010FC13001C001000000000000E3837
:1048E00011441084108411440E38000000000700A9
:1048F000088C10441044088807F0000000000000F5
:104900000000030C030C0000000000000000000089
:10491000000101060000000000000000000000800F
:1049200001400220041008081004000002200220A8
:1049300002200220022002200220000000001004B9
:1049400008080410022001400080000000000E0052
:104950001200100C106C10800F00000003E00C1807
:1049600013E4142417C4082807D000000004003CF6
:1049700003C41C40074000E4001C000410041FFC9A
:104980001104110411040E880070000003E00C18DB
:1049900010041004100410081C10000010041FFC68
:1049A000100410041004080807F0000010041FFC95
:1049B0001104110417C410040818000010041FFC8F
:1049C0001104110017C010000800000003E00C18CB
:1049D0001004100410441C780040000010041FFC58
:1049E00010840080008010841FFC1004000010045C
:1049F00010041FFC1004100400000000000300015C
:104A0000100110011FFE10001000000010041FFC18
:104A1000110403801464181C1004000010041FFC0F
:104A20001004000400040004000C000010041FFC2B
:104A30001F0000FC1F001FFC1004000010041FFCDE
:104A40000C04030000E010181FFC100007F0080819
:104A5000100410041004080807F0000010041FFCE4
:104A600010841080108010800F00000007F00818DC
:104A700010241024101C080A07F2000010041FFC68
:104A80001104110011C011300E0C000400000E1CA6
:104A900011041084108410441C3800001800100009
:104AA00010041FFC100410001800000010001FF874
:104AB00010040004000410041FF8100010001E0071
:104AC00011E0001C007013801C0010001FC0103C7F
:104AD00000E01F0000E0103C1FC000001004180C94
:104AE000163401C001C01634180C100410001C004C
:104AF000130400FC13041C00100000000804101C28
:104B00001064108413041C0410180000000000003E
:104B100000007FFE40024002400200000000300022
:104B20000C0003800060001C000300000000400235
:104B3000400240027FFE0000000000000000000074
:104B40002000400040004000200000000001000163
:104B5000000100010001000100010001000040000F
:104B6000400020000000000000000000000000984D
:104B7000012401440144014400FC000410001FFC16
:104B8000008801040104008800700000000000702B
:104B90000088010401040104008800000000007086
:104BA00000880104010411081FFC0004000000F843
:104BB000014401440144014400C800000000010414
:104BC00001040FFC1104110411001800000000D6AC
:104BD00001290129012901C90106000010041FFC57
:104BE000008401000100010400FC00040000010435
:104BF000190419FC00040004000000000000000378
:104C000000010101190119FE0000000010041FFC41
:104C10000024004001B4010C010400000000100455
:104C200010041FFC0004000400000000010401FC4B
:104C30000104010001FC0104010000FC010401FC6D
:104C4000008401000100010400FC0004000000F8E1
:104C5000010401040104010400F80000010101FF46
:104C6000008501040104008800700000000000704D
:104C7000008801040104010501FF00010104010491
:104C800001FC00840104010001800000000000CC50
:104C900001240124012401240198000000000100E6
:104CA000010007F80104010400000000010001F800
:104CB000000400040004010801FC0004010001805C
:104CC0000170000C001001600180010001F0010C76
:104CD000003001C00030010C01F0010000000104AF
:104CE000018C00740170018C01040000010101813C
:104CF0000171000E001801600180010000000184B4
:104D0000010C013401440184010C0000000000008A
:104D10000000000001003EFC4002400200000000D4
:104D200000000000FFFF0000000000000000400243
:104D300040023EFC01000000000000000000600096
:104D400080008000400040002000200000000000A3
:104D50000000000000000000000000000000000053
:104D60000000000000000000000000000000000043
:104D70000000000000000000000000000000000F24
:104D800080380FFE380F803800000000000000005F
:104D9000000000000000000000000100000600000C
:104DA0000C00003800003100000600000C00003844
:104DB000000030000000000000000000618000677B
:104DC000F807F980006180006180006180006180E7
:104DD0000067F807F9800061800000000000000013
:104DE000000001C0E003E0F00630080418081FFFCF
:104DF000FE040E080787F00381E0000000000000B9
:104E000001F000060C00040408060C7001F9C00053
:104E10000E00003BE000EC18070808040C18000323
:104E2000E00000000001E00007F003F818041C088F
:104E300004170807E1D003C0E00023B0003C0800DD
:104E400020080000100000000000000100003100F8
:104E5000003200001C000000000000000000000004
:104E60000000000000000000000000000000000042
:104E70000000000000000000000000007F0001FFB3
:104E8000C00780F00C001810000420000200000091
:104E90000000002000021000040C00180780F00140
:104EA000FFC0007F000000000000000000000000C4
:104EB00000000000000000004200006600006600E4
:104EC000003C0000180003FFC0001800003C000078
:104ED00066000066000042000000000008000008B4
:104EE0000000080000080000080001FFC0000800E2
:104EF0000008000008000008000008000000000092
:104F0000000100003100003200001C000000000021
:104F10000000000000000000000000000000000091
:104F20000000000008000008000008000008000061
:104F30000800000800000800000800000800000841
:104F400000000000000000000000000038000038F1
:104F50000000380000000000000000000000000019
:104F6000000000000000000000000000000600003B
:104F70001C000070000180000E0000380000C0001E
:104F80000700001C000030000000000000000000CE
:104F90007F8001FFE0038070060018040008040011
:104FA0000806001803807001FFE0007F8000000009
:104FB00000000000000001000801000801000803D3
:104FC000FFF807FFF80000080000080000080000D4
:104FD0000000000000000001C03802C05804009822
:104FE000040118040218040418061C1803F8180118
:104FF000E0F800000000000000000001C0E003C075
:10500000F004000804080804080806180803F41847
:1050100001E7F00001E000000000000000000000D7
:105020000300000D00001100006100008108030171
:105030000807FFF80FFFF800010800010800000052
:105040000000000000E007FCD00608080610080673
:105050001008061008061838060FF00607C00000F2
:1050600000000000000000003F8001FFE0038430EA
:105070000208180410080410080410080718100388
:105080000FF00007C000000000000000000003C097
:10509000000700000600000600F80607F8061800E2
:1050A00006E000070000060000000000000000010C
:1050B000E1E003F7F0063410041808041808040CA3
:1050C00008040C0806161803F3F001C1E000000004
:1050D00000000000F80003FC300306380402080456
:1050E00002080402080404100308F001FFC0007F56
:1050F00000000000000000000000000000000000B0
:1051000000000000703800703800703800000000A7
:10511000000000000000000000000000000000008F
:105120000000000000000000301A00301C000000E9
:10513000000000000000000000000000000000006F
:105140000000000800001400002200004100008060
:105150008001004002002004001008000800000048
:1051600000000000210000210000210000210000BB
:105170002100002100002100002100002100002169
:1051800000000000000000000000080008040010FB
:105190000200200100400080800041000022000049
:1051A000140000080000000000000003C00004C05C
:1051B00000040000080038080F38080838081000FC
:1051C0000C300007E00003C00000000000000000F9
:1051D0003F8000FFE0038070020F1006708804C05B
:1051E00088048308047F8802C09003012000FE40E9
:1051F0000000080000180001F8003E0801C2000786
:10520000020007E20000FE00001FC80001F80000D5
:105210003800000804000807FFF807FFF804080832
:1052200004080804080804080806180803F418010C
:10523000E7F00001E0000000000000003F8001FFF7
:10524000E00380700200180400080400080400084D
:105250000400100600200780C000000004000807BA
:10526000FFF807FFF8040008040008040008040021
:105270001802001003807001FFE0007F8000000032
:1052800004000807FFF807FFF804080804080804EA
:105290000808040808043E08040008060018010075
:1052A0006000000004000807FFF807FFF804080882
:1052B000040800040800040800043E00060000067C
:1052C0000000018000000000000000003F8001FF9E
:1052D000E0038070060018040008040208040208B5
:1052E0000203F00783F00002000002000400080738
:1052F000FFF807FFF804080800080000080000088D
:105300000000080004080807FFF807FFF804000879
:105310000000000000000400080400080400080762
:10532000FFF807FFF8040008040008040008000064
:10533000000000000000000000060000070000015F
:1053400004000104000104000307FFFE07FFFC0442
:10535000000004000004000004000807FFF807FF35
:10536000F8040C08001800003E0004C7800503C8BC
:105370000600F804003804001800000804000807BC
:10538000FFF807FFF804000800000800000800000C
:10539000080000080000080000180000600000007D
:1053A00004000807FFF807800807FC00007FC00022
:1053B00003F80007C000780007800807FFF807FF20
:1053C000F804000804000807FFF807000803C000FD
:1053D00000E000003800001E000007000001C004CB
:1053E00000F007FFF8040000000000007F8001FFCC
:1053F000E003807006001804000804000806001886
:1054000003003001FFE0007F800000000400080777
:10541000FFF807FFF804040804040004040004046F
:1054200000040400060C0003F80001F00000000076
:10543000000000007F8001FFE00380700600880408
:1054400000880400C806003C03003E01FFE6007F20
:105450008400000004000807FFF807FFF8040808AC
:10546000040800040C00040F00040BC00610F00335
:10547000F03801E00800000800000001E0F803F047
:1054800030063010041808041808040C08040C082E
:105490000206180207F00781E00000000180000604
:1054A000000004000004000004000807FFF807FFE4
:1054B000F804000804000004000006000001800059
:1054C00004000007FFE007FFF004001800000800D8
:1054D000000800000800000800000804001007FF92
:1054E000E004000004000006000007E00007FE00E2
:1054F000041FE00001F80000380001E0043E00074E
:10550000C00006000004000004000007E00007FFE0
:10551000C0041FF80007C007F80007FF80043FF829
:105520000007C004F80007000004000000000004A9
:10553000000806001807C07805F1C8003E00001FEB
:10554000800463E80780F8060018040008000000E3
:1055500004000006000007800007E008047C080043
:105560001FF80007F800180804E00807000006000C
:10557000000400000000000100080600380400F8E4
:105580000403E8040F08047C0805F00807C00807B6
:10559000001804006000000000000000000000008F
:1055A000000000000000003FFFFE2000022000027B
:1055B0002000022000022000020000000000000085
:1055C000000008000007000000C0000038000006CE
:1055D000000001C000003000000E000001000000CB
:1055E0000000000000002000022000022000022035
:1055F00000022000023FFFFE00000000000000004B
:105600000000000000000000000000000008000092
:1056100010000030000020000030000010000008E2
:105620000000000000000000000001000001000078
:105630000100000100000100000100000100000164
:105640000000010000010000010000010000000056
:1056500000000000002000002000001000001000EA
:10566000000000000000000000000000000000003A
:105670000000000000F00019F8001B1800220800CC
:105680002608002408002410003FF8001FF800003E
:105690000800001800000004000007FFF80FFFF0EA
:1056A000001818001008002008002008003018001A
:1056B0001FF0000FC00000000000000007C0001F26
:1056C000F0001830002008002008002008003C08E6
:1056D000001C10000060000000000000000000003E
:1056E00007C0001FF0003818002008002008002024
:1056F0000804101007FFF80FFFF000001000000072
:105700000000000000000007C0001FF00012300081
:105710002218002208002208003208001E10000E85
:1057200020000000000000002000002008002008E9
:1057300001FFF803FFF806200804200804200807EA
:10574000200003000000000000000000000E000E1A
:105750006E001FF30031B10020B10020B100319183
:10576000001F13002E1E00200E0030000000000459
:10577000000807FFF80FFFF80010080020000020C5
:1057800000002008003FF8001FF80000080000009B
:10579000000000000000002008002008002008068B
:1057A0003FF8063FF800000800000800000800006D
:1057B00000000000000000000000000003000003E3
:1057C000002001002001002003063FFE063FFC00F0
:1057D000000000000000000000000004000807FFB7
:1057E000F80FFFF8000188000300002FC00038F810
:1057F0000020380020080000080000000000000021
:10580000000004000804000804000807FFF80FFF68
:10581000F800000800000800000800000000000078
:10582000002008003FF8003FF800100800200000AA
:105830003FF8003FF8001008002000003FF8003F4C
:10584000F8000008000000002008003FF8003FF8C2
:10585000001008001000002000002008003FF800A1
:105860001FF80000080000000000000007C0000F43
:10587000F000183000300800200800200800300830
:10588000001830000FF00007C0000000000000000A
:105890002001003FFF003FFF001011002009002001
:1058A00008002008003038001FF0000FC000000082
:1058B0000000000007C0001FF0003818002008009A
:1058C0002008002009001011001FFF003FFF00000A
:1058D00001000000002008002008002008003FF818
:1058E000003FF80008080010080020080020000011
:1058F0003000003000000000000000000000000C3C
:1059000078001E18003308002308002108002188B1
:105910000021980030F00038600000000000000016
:10592000200000200000200000FFF003FFF800200E
:1059300008002008002008000030000000000000DF
:10594000000000002000003FF0007FF80000180079
:105950000008000008002010003FF8007FF0000061
:1059600010000000000000002000003000003C009B
:10597000003F800023F000007800007000238000CA
:105980003C00003000002000002000003C00003FF0
:10599000E00023F80000E0002700003E00003FE0A8
:1059A0000021F80001E0003E00002000000000009F
:1059B0002008002008003838003E680027800003D7
:1059C000C8002CF80038380020180020080000001B
:1059D000000000002000003003003C01003F830075
:1059E00023EC000070002380003C00002000002019
:1059F000000000000000000000000038080020380F
:105A00000020F80023E8002F88003E080038080036
:105A100020180000700000000000000000000000DE
:105A2000000000000000000008000014001FF7FC48
:105A3000300006200002000000000000000000000E
:105A40000000000000000000000000000000FFFF58
:105A5000FF00000000000000000000000000000047
:105A60000000000000002000023000061FF7FC00CC
:105A7000140000080000000000000000000000000A
:105A8000000000000000001800006000004000005E
:105A90004000002000001000000800000400000486
:105AA00000000C0000100000C85A00080000002090
:105AB00084000000503500084C5B00088400002082
:105AC000BC0900006035000800000000010203046A
:105AD000010203040607080902040608000000008A
:105AE0000000000000000000000000009503000816
:105AF000E8030000450400080A00000079060008D9
:105B0000DC0500006D06000805000000CB3200082F
:105B10000A0000000000000000000000000000007B
:105B20000000000000000000FFFF00000000000077
:105B30000000000000000000000000000000000065
:0C5B400000000000000000000000000059
:0400000508000131BD
:00000001FF
